:100000000C942A000C94CD140C94FA140C9427151B
:100010000C9447000C9447000C9447000C942C0956
:100020000C9447000C9447000C9447000C94470034
:100030000C9447000C9467130C9447000C944700F1
:100040000C944B170C9447000C9447000C944700F9
:100050000C94470011241FBECFE5D8E0DEBFCDBF12
:1000600012E0A0E6B0E0ECECF6E402C005900D92E0
:10007000A837B107D9F717E0A8E7B2E001C01D9291
:10008000A43FB107E1F70E9452220C9464230C9420
:100090000000A0E0B0E0EFE4F0E00C940E23DC01FF
:1000A0002B01FA019C91923008F439C1EB0188814F
:1000B000823008F433C1943069F4843009F02FC1E0
:1000C00011969C9111978981981709F428C1AFEE78
:1000D000B0E025C1843009F421C18230A9F4923006
:1000E00009F01DC19A01AD0188E0EA010990AE0155
:1000F000E90109929E018150C1F7E20189811196BF
:100100009C918923818308C1923009F407C112961A
:100110002D903C901397EB018A819B811496AD90B2
:10012000BD90CD90DC901797EC80FD800E811F81F3
:100130009101281B390BB90137FF04C066277727C7
:10014000621B730B603271050CF061C0121613064E
:100150006CF537014801062E04C096948794779475
:1001600067940A94D2F721E030E040E050E004C008
:10017000220F331F441F551F6A95D2F7215030407C
:10018000404050402E213F2140235123211531056D
:100190004105510521F021E030E040E050E07901D7
:1001A0008A01E628F728082919293CC0232BD1F118
:1001B000260E371E35014601062E04C096948794FC
:1001C000779467940A94D2F721E030E040E050E061
:1001D00004C0220F331F441F551F6A95D2F72150C8
:1001E0003040404050402A213B214C215D212115C7
:1001F00031054105510521F021E030E040E050E0BB
:1002000059016A01A628B728C828D9280BC0821529
:1002100093052CF01C01AA24BB24650103C0EE2425
:10022000FF24870111969C91D20111968C91981709
:1002300009F445C0992339F0A80197012A193B090F
:100240004C095D0906C0A60195012E193F09400B16
:10025000510B57FD08C011823382228224833583DB
:10026000468357831DC081E08183338222828827A1
:100270009927DC01821B930BA40BB50B8483958318
:10028000A683B7830DC0220F331F441F551F24833D
:100290003583468357838281938101979383828339
:1002A0002481358146815781DA01C9010197A1096D
:1002B000B1098F5F9F4FAF4FBF4328F30BC09183AE
:1002C00033822282EA0CFB1C0C1D1D1DE482F58288
:1002D0000683178383E0808324813581468157819B
:1002E00057FF1AC0C901AA2797FDA095BA2F8170A0
:1002F0009070A070B0705695479537952795822BD2
:10030000932BA42BB52B84839583A683B7838281FB
:100310009381019693838283DF0101C0D201CD01D5
:10032000CDB7DEB7E2E10C942A23A0E2B0E0EBE91E
:10033000F1E00C941A2369837A838B839C832D8349
:100340003E834F835887E9E0EE2EF12CEC0EFD1E24
:10035000CE010196B7010E94F3048E010F5E1F4F7C
:10036000CE010596B8010E94F3048A8991E089279D
:100370008A8BC701B801AE01475E5F4F0E944900FA
:100380000E941E04A096E6E00C943623A0E2B0E0A2
:10039000ECECF1E00C941A2369837A838B839C83C1
:1003A0002D833E834F835887F9E0EF2EF12CEC0E1E
:1003B000FD1ECE010196B7010E94F3048E010F5E6F
:1003C0001F4FCE010596B8010E94F304C701B80182
:1003D000AE01475E5F4F0E9449000E941E04A09636
:1003E000E6E00C943623A0E2B0E0E9EFF1E00C94F3
:1003F0000E2369837A838B839C832D833E834F8373
:100400005887CE010196BE01675F7F4F0E94F304BB
:10041000CE010596BE016F5E7F4F0E94F304998561
:10042000923088F089898230C8F0943019F4823093
:1004300051F404C0843029F4923081F48FEE90E0BE
:10044000C6C0923049F420E09A858A89981321E049
:100450002A87CE010996BBC0823049F420E09A85F4
:100460008A89981321E02A8BCE014196B0C02D8451
:100470003E844F8458886D887E888F88988CEE24BF
:10048000FF248701AA24BB24650140E050E060E01E
:1004900070E0E0E0F0E0C10181709070892BE9F03C
:1004A000E60CF71C081D191D9A01AB012A0D3B1D16
:1004B0004C1D5D1D80E090E0A0E0B0E0E614F70484
:1004C0000805190520F481E090E0A0E0B0E0BA0151
:1004D000A901480F591F6A1F7B1FAA0CBB1CCC1C0B
:1004E000DD1C97FE08C081E090E0A0E0B0E0A82A03
:1004F000B92ACA2ADB2A3196E032F10549F0660CA6
:10050000771C881C991C5694479437942794C3CF22
:10051000FA85EA892B893C898B859C85280F391FB0
:100520002E5F3F4F17C0CA0181709070892B61F018
:1005300016950795F794E79480E090E0A0E0B0E886
:10054000E82AF92A0A2B1B2B76956795579547952C
:100550002F5F3F4F77FDE7CF0CC0440F551F661F3D
:10056000771F17FD4160EE0CFF1C001F111F21506B
:100570003040403090E0590790E0690790E47907F7
:1005800060F32B8F3C8FDB01CA018F779070A070D6
:10059000B07080349105A105B10561F447FD0AC032
:1005A000E114F1040105110529F0405C5F4F6F4F24
:1005B0007F4F40781A8EFE1711F081E08A8F4D8FA1
:1005C0005E8F6F8F78A383E0898FCE0149960E945A
:1005D0001E04A096E2E10C942A23A8E1B0E0E3EF28
:1005E000F2E00C941A2369837A838B839C832D8396
:1005F0003E834F83588789E0E82EF12CEC0EFD1ED8
:10060000CE010196B7010E94F3048E010F5E1F4FC9
:10061000CE010596B8010E94F3048985823040F02E
:100620008989823028F0C701B8010E946B0501C09A
:1006300081E06896E6E00C943623A8E0B0E0E3E2BF
:10064000F3E00C9417239B01AC0183E08983DA016A
:10065000C9018827B7FD83959927AA27BB27B82EFC
:10066000211531054105510519F482E089833AC00D
:100670008823A9F0203080E0380780E0480780E830
:10068000580729F460E070E080E09FEC30C0EE2471
:10069000FF248701E21AF30A040B150B02C079014B
:1006A0008A018EE1C82ED12CDC82CB82ED82FE82C3
:1006B0000F831887C801B7010E94CF03019718164E
:1006C000190684F4082E04C0EE0CFF1C001F111F35
:1006D0000A94D2F7ED82FE820F831887C81AD90ACE
:1006E000DC82CB82BA82CE0101960E941E0428963B
:1006F000E9E00C943323ACE0B0E0E1E8F3E00C94E3
:100700001E2369837A838B839C83CE010196BE016D
:100710006B5F7F4F0E94F3048D81823061F18230E4
:1007200050F1843021F48E81882351F12EC02F8125
:10073000388537FD20C06E812F3131051CF06623CE
:10074000F9F023C08EE190E0821B930B29853A8556
:100750004B855C8504C056954795379527958A95B6
:10076000D2F76623B1F050954095309521953F4FD3
:100770004F4F5F4F0EC020E030E040E050E009C036
:100780002FEF3FEF4FEF5FE704C020E030E040E0A5
:1007900050E8B901CA012C96E2E00C943A23EF929A
:1007A000FF920F931F937B018C0180E0E81680E09D
:1007B000F80681E0080780E0180788F48FEFE81654
:1007C000F1040105110531F028F088E090E0A0E087
:1007D000B0E017C080E090E0A0E0B0E012C080E0A0
:1007E000E81680E0F80680E0080781E0180728F0A6
:1007F00088E190E0A0E0B0E004C080E190E0A0E0FB
:10080000B0E020E230E040E050E0281B390B4A0B1A
:100810005B0B04C016950795F794E7948A95D2F779
:10082000F701E950FF4F8081281B31094109510927
:10083000C9011F910F91FF90EF900895DF92EF9201
:10084000FF920F931F93FC01E480F58006811781CE
:10085000D1808081823048F480E090E0A0E1B0E077
:10086000E82AF92A0A2B1B2BA5C0843009F49FC063
:10087000823021F4EE24FF24870105C0E114F10445
:100880000105110519F4E0E0F0E096C06281738182
:100890009FEF623879070CF05BC022E83FEF261B20
:1008A000370B2A3131052CF020E030E040E050E0F9
:1008B0002AC0B801A701022E04C076956795579506
:1008C00047950A94D2F781E090E0A0E0B0E004C040
:1008D000880F991FAA1FBB1F2A95D2F70197A1095C
:1008E000B1098E219F21A023B1230097A105B10555
:1008F00021F081E090E0A0E0B0E09A01AB01282B6C
:10090000392B4A2B5B2BDA01C9018F779070A070CD
:10091000B07080349105A105B10539F427FF09C0F5
:10092000205C3F4F4F4F5F4F04C0215C3F4F4F4F04
:100930005F4FE0E0F0E02030A0E03A07A0E04A0797
:10094000A0E45A0710F0E1E0F0E079018A0127C045
:100950006038710564F5FB01E158FF4FD801C7010C
:100960008F779070A070B07080349105A105B105AB
:1009700039F4E7FE0DC080E490E0A0E0B0E004C0F0
:100980008FE390E0A0E0B0E0E80EF91E0A1F1B1F05
:1009900017FF05C016950795F794E794319687E001
:1009A00016950795F794E7948A95D1F705C0EE243C
:1009B000FF248701EFEFF0E06E2F679566276795BC
:1009C000902F9F77D794DD24D7948E2F8695492F2B
:1009D000462B582F5D29B701CA011F910F91FF9037
:1009E000EF90DF900895FC01DB014081518122816D
:1009F000622F6F7770E0221F2227221F9381892F99
:100A0000880F822B282F30E0991F9927991F119664
:100A10009C93119721153105A9F5411551056105E3
:100A2000710511F482E037C082E89FEF13969C9322
:100A30008E9312979A01AB0167E0220F331F441F78
:100A4000551F6A95D1F783E08C930DC0220F331F99
:100A5000441F551F12968D919C91139701971396E1
:100A60009C938E931297203080E0380780E04807EF
:100A700080E4580758F314962D933D934D935C935F
:100A8000179708952F3F310579F4411551056105F8
:100A9000710519F484E08C93089564FF03C081E02C
:100AA0008C9312C01C9210C02F57304013963C9369
:100AB0002E93129783E08C9387E0440F551F661F97
:100AC000771F8A95D1F7706414964D935D936D935B
:100AD0007C93179708951F93DC01FB019C91923042
:100AE00008F447C08081823008F443C0943051F448
:100AF00011961C91843099F58181682F70E0611BFB
:100B000071093FC0843021F0923031F48230B9F164
:100B10008181882389F12DC011961C911197823013
:100B2000F1F081811817D9F412962D913C91139709
:100B3000828193818217930794F028173907BCF0BC
:100B400014968D919D910D90BC91A02D248135819D
:100B500046815781281739074A075B0718F4112384
:100B600041F00AC082179307A407B50740F4112388
:100B700019F061E070E005C06FEF7FEF02C060E048
:100B800070E0CB011F910895EF92FF920F931F9396
:100B9000FC010580F681E02DE680F7808701045F87
:100BA0001F4FC8010E942B0889EA92E0B8010E94F9
:100BB000CD0720E0E0917802F0917902D7015696B6
:100BC0009C918689981708F021E0822F1F910F9140
:100BD000FF90EF900895FF920F931F93CF93DF93B1
:100BE00099E0F92E21C0F894E091AE02F091AF02A5
:100BF00006811781C8010C960E942B087894E801A1
:100C00002296CE010E942B08F801968980917A02E3
:100C1000891710F490937A029F9DC00111248F5779
:100C20009D4FBE010E94CD078091A9028823D9F66D
:100C30000E942F0D20917B0230917C02821B930B2E
:100C400090937E0280937D0289E0F82E53C0019636
:100C50009093800280937F022150304030937E0237
:100C600020937D02892B09F03EC02091A50230918E
:100C7000A6028091A7029091A8029093A602809369
:100C8000A5023093A8022093A7022DC00580F6810B
:100C9000E02DC681D78120917F02309180028A8128
:100CA0009B812817390730F1F8948E010E5F1F4F92
:100CB000C8010E942B088C899D89892B21F0CE01C7
:100CC0000C960E942B0878949E8980917A0289174D
:100CD00010F490937A029F9DC00111248F579D4F6D
:100CE000B8010E94CD07E091A502F091A602808193
:100CF000882361F620917D0230917E0280917F02EF
:100D0000909180022115310509F0A1CF90937C02CA
:100D100080937B0290917A0229E006C0992319F40E
:100D200010927A0232C09150929FD0011124AF5795
:100D3000BD4F8C91882391F390937A021196ED9197
:100D4000FC9112970280F381E02D1296FC93EE93B2
:100D50001197CD010396E817F90731F48281938149
:100D600012969C938E9311971196ED91FC91129788
:100D70000680F781E02DF0937902E09378022081DC
:100D80003181CF016789F9010995DF91CF911F91D9
:100D90000F91FF9008950F931F93CF93DF93EB0173
:100DA00000917F0210918002080F191F8091780234
:100DB0009091790202960E942B08E0917802F091BE
:100DC00079021383028380917F0290918002BF0198
:100DD0006E5F7F4F0817190728F48091A702909142
:100DE000A80204C08091A5029091A6020E94F60775
:100DF000209749F06091780270917902645F7F4F8B
:100E0000CE010E94F607DF91CF911F910F910895B7
:100E1000AF92BF92CF92DF92EF92FF920F931F9308
:100E2000CF93DF936C01B62EA42E8AE190E00E944E
:100E30009207EC01009711F48FEF59C0809178026E
:100E400090917902892B21F5D0937902C093780291
:100E500081E892E00E94B9078AE892E00E94B9070F
:100E600023E9E22E22E0F22EC7010E94B9070CE925
:100E700012E0C8010E94B90789EA92E00E94B9070E
:100E8000F092A602E092A5021093A8020093A70296
:100E9000EB2CBB2011F0EE24E394198E188EEE8A11
:100EA000AF8AFE01C192D1928F01CF010E94C90782
:100EB000CE010C960E94C907D987C887DB8BCA8BE5
:100EC00084E090E08E1991099D878C879E8980919E
:100ED0007A02891710F490937A0289E0989FC001F2
:100EE00011248F579D4FB8010E94CD0781E0DF91FB
:100EF000CF911F910F91FF90EF90DF90CF90BF9017
:100F0000AF90089508951092B3021092B20208951E
:100F100020EB34E08091B2029091B302281B390B90
:100F2000C90108950F931F93CF93DF938C010E9403
:100F3000290D8091B2029091B3029801280F391FB8
:100F400044E0203B340758F48217930740F4EC0147
:100F5000CC54DD4F3093B3022093B20202C0C0E004
:100F6000D0E00E94E30FCE01DF91CF911F910F914E
:100F70000895FC019C012D5F3F4F328321838FEF49
:100F80009FEF948383833683258330872783108262
:100F90000895FC01118610860895CF93DF93AC016C
:100FA000DB01EC0129813A81F90182819381139659
:100FB0009C938E93129789819A8115969C938E9318
:100FC00014970280F381E02D75836483E9017B83AC
:100FD0006A83FA017283618319965C934E93189722
:100FE00080818F5F8083DF91CF910895CF93DF93CE
:100FF0009C01EB01488159818FEF4F3F580721F445
:10100000F901A781B08510C0D901139604C01296CA
:101010000D90BC91A02D1296ED91FC9113978081BB
:1010200091814817590798F71296ED91FC91139703
:10103000FB83EA83D583C483BD83AC831396DC939F
:10104000CE93129739872887F90180818F5F80833B
:10105000DF91CF910895CF93DF93DC011296ED914C
:10106000FC91139714968D919C9115979583848389
:101070001496CD91DC911597FB83EA831896ED9138
:10108000FC911997818192818A179B0711F4D28371
:10109000C18319961C921E9218978081815080837B
:1010A000DF91CF910895FC0191E1908322E2229398
:1010B00083E3829362937293129280E882931292F6
:1010C00082E0829383E0829384E0829385E082933E
:1010D00086E0829387E0829388E0829389E082931E
:1010E00080E18293929382E1829383E1829384E10F
:1010F000829385E1829386E1829387E1829388E1FE
:10110000829389E1829380E2829381E282932293A7
:1011100083E282934293529386E2829387E28293A0
:1011200088E2829389E2829380E3829381E38293CF
:101130003197CF0108951BBC8CE78ABD8BE08EBD33
:1011400089B7806189BFA0916407B0916507CD918F
:10115000CDBFDD91DEBFFF91EF91DF91CF91BF91C8
:10116000AF919F918F917F916F915F914F913F913F
:101170002F911F910F91FF90EF90DF90CF90BF9034
:10118000AF909F908F907F906F905F904F903F9027
:101190002F901F900F900FBE0F90089581E008953B
:1011A00008950F920FB6F8940F921F9211242F9268
:1011B0003F924F925F926F927F928F929F92AF92E7
:1011C000BF92CF92DF92EF92FF920F931F932F93D4
:1011D0003F934F935F936F937F938F939F93AF93BF
:1011E000BF93CF93DF93EF93FF93A0916407B091E8
:1011F00065070DB60D920EB60D920E948E0E0E94DE
:10120000430DA0916407B0916507CD91CDBFDD91ED
:10121000DEBFFF91EF91DF91CF91BF91AF919F9191
:101220008F917F916F915F914F913F912F911F917E
:101230000F91FF90EF90DF90CF90BF90AF909F9075
:101240008F907F906F905F904F903F902F901F9066
:101250000F900FBE0F9008950E94D10818950F921D
:101260000FB6F8940F921F9211242F923F924F9233
:101270005F926F927F928F929F92AF92BF92CF9226
:10128000DF92EF92FF920F931F932F933F934F9311
:101290005F936F937F938F939F93AF93BF93CF93FE
:1012A000DF93EF93FF93A0916407B09165070DB6AC
:1012B0000D920EB60D920E94430DA0916407B0915D
:1012C0006507CD91CDBFDD91DEBFFF91EF91DF913D
:1012D000CF91BF91AF919F918F917F916F915F91CE
:1012E0004F913F912F911F910F91FF90EF90DF90C1
:1012F000CF90BF90AF909F908F907F906F905F90B6
:101300004F903F902F901F900F900FBE0F90089519
:10131000FC010FB6F8940F92828D0F900FBE0895C6
:10132000FC01828D0895FC01828D90E0882309F4F0
:1013300091E0892F0895FC01928D20E0838D98170C
:1013400009F421E0822F08950F931F938C01FC0173
:10135000808191810E948207C8010E9482071F91AB
:101360000F9108950F931F93CF93DF93EC01FB012F
:101370008A018A8D882381F148815981411551055F
:10138000A9F08C8D2E813F81280F311D3F832E8344
:101390008A819B812817390710F05F834E834C8D1B
:1013A0006E817F81CF0150E00E9445238A8D81505C
:1013B0008A8F8D8D8F3F69F48885882361F0CE01F7
:1013C00008960E944F0E882331F081E0F801808357
:1013D00003C08F5F8D8F81E0DF91CF911F910F91BF
:1013E00008950F931F93CF93DF93EC010FB6F894FA
:1013F0000F928C010F5E1F4F0DC08989882369F001
:10140000C8010E944F0E882311F00E94CE0D8E8DD0
:1014100081508E8F8E8D181684F38FEF8E8F0F90E4
:101420000FBE0FB6F8940F928E01085F1F4F0DC0CC
:101430008885882369F0C8010E944F0E882311F027
:101440000E94CE0D8D8D81508D8F8D8D181684F359
:101450008FEF8D8F0F900FBEDF91CF911F910F9166
:1014600008957F928F929F92AF92BF92CF92DF9218
:10147000EF92FF920F931F93DF93CF9300D000D092
:101480000F92CDB7DEB78C01962E872E5D834C83ED
:10149000722E91E1C92ED12CC00ED11E20E07E010A
:1014A0000894E11CF11C84E0A82EB12CAC0EBD1EEA
:1014B00001C021E00FB6F8940F92F801828D8823C5
:1014C00009F448C0E680F7804081518141155105FB
:1014D000B1F0848D9701280F311D378326838281D7
:1014E00093812817390710F057834683F801448DFC
:1014F00066817781892D982D50E00E9445237720C1
:10150000C1F4F801828D8150828F80819181892B75
:1015100029F40E94D20DF80193838283F80180851B
:101520008823A1F0C80108960E944F0E813071F403
:101530000BC0F801F782E6828189882339F0C60161
:101540000E944F0E882311F00E942F090F900FBEAA
:1015500081E059C08C819D81892B19F40F900FBEB9
:1015600051C0222319F4C7010E94850D0F900FBEB0
:101570000E94290D0FB6F8940F92F801858D8F3FC8
:1015800009F4158EF801868D8F3F09F4168E0F90A1
:101590000FBEC701B5010E94900D882371F50FB6EB
:1015A000F8940F92F801828D0F900FBE8823F9F402
:1015B000F80180819181892B51F40FB6F8940F9234
:1015C000F801828193810E94050E0F900FBE6C81FD
:1015D0007D81C6010E94B70FC8010E94F1090E94D7
:1015E000E30F882309F065CF0E942F0962CFC8015D
:1015F0000E94F1090E94E30F5CCFC8010E94F1092B
:101600000E94E30F80E00F900F900F900F900F90CB
:10161000CF91DF911F910F91FF90EF90DF90CF90CE
:10162000BF90AF909F908F907F900895EF92FF9220
:101630000F931F93CF93DF93EC017B010A811B81F2
:101640000E94D20D0817190739F48E819F810196E7
:101650009F838E8321E00FC0CE0160E070E0A70180
:1016600020E00E94310A282F813029F48E819F8149
:1016700001969F838E83822FDF91CF911F910F91CF
:10168000FF90EF900895CF93DF93EC01842F4C8D62
:10169000442359F488819981892BD9F58A819B81CA
:1016A0000E94D80D1B821A8234C08823B1F48C8129
:1016B0009D8150E00E9445238C8D2C813D81280F17
:1016C000311D3D832C838A819B812817390708F1BE
:1016D000888199819D838C831CC08E819F8150E07D
:1016E0000E9445238C8D90E044275527481B590BB9
:1016F0008E819F81840F951F9F838E8328813981DE
:101700008217930730F48A819B81840F951F9F83F2
:101710008E838A8D8F5F8A8FDF91CF9108950F938B
:101720001F93CF93DF93EC018A019A8D8B8D9817CD
:1017300010F080E017C0CE01422F0E94430B8E8D27
:101740008F3F69F48989882361F0CE0141960E9418
:101750004F0E882331F081E0F801808303C08F5F52
:101760008E8F81E0DF91CF911F910F9108957F922D
:101770008F929F92AF92BF92CF92DF92EF92FF92A1
:101780000F931F93DF93CF9300D000D00F92CDB76C
:10179000DEB78C016B015D834C83722E48E0E42E32
:1017A000F12CE80EF91E20E05E010894A11CB11C8A
:1017B00034E0832E912C8C0E9D1E01C021E00FB6CB
:1017C000F8940F92F801928D838D9817A8F4C801B0
:1017D000B601472D0E94430BF8018189882341F00F
:1017E000C80141960E944F0E813011F40E942F09CA
:1017F0000F900FBE81E04CC08C819D81892B19F424
:101800000F900FBE44C0222319F4C5010E94850D1C
:101810000F900FBE0E94290D0FB6F8940F92F80199
:10182000858D8F3F09F4158EF801868D8F3F09F461
:10183000168E0F900FBEC501B4010E94900D882333
:1018400009F50FB6F8940F92F801928D0F900FBE24
:10185000F801838D981781F46C817D81C7010E9406
:10186000B70FC8010E94F1090E94E30F882309F015
:10187000A5CF0E942F09A2CFC8010E94F1090E94A2
:10188000E30F9CCFC8010E94F1090E94E30F80E0A2
:101890000F900F900F900F900F90CF91DF911F91AD
:1018A0000F91FF90EF90DF90CF90BF90AF909F90FF
:1018B0008F907F9008950F931F93CF93DF93EC0148
:1018C0000A811B810E94D20D0817190711F080E0D0
:1018D00010C08E819F8101979F838E83892B41F455
:1018E000CE0160E070E040E050E020E00E94B70BE5
:1018F00081E0DF91CF911F910F910895CF93DF93F6
:101900008FE190E00E949207EC010097F9F01B82B2
:101910001A82198218821D821C821F821E821A8ED0
:1019200081E08B8F1C8E8FEF8D8F8E8FCE0108966E
:101930000E94B907CE0141960E94B907CE0160E02E
:1019400070E040E050E020E00E94B70BCE01DF9154
:10195000CF910895AF92BF92CF92DF92EF92FF9214
:101960000F931F93CF93DF93B82EA62E882309F4ED
:1019700042C08FE190E00E949207EC010097D9F1FC
:10198000EB2CFF24CA2CDD24CE9C8001CF9C100DB3
:10199000DE9C100D1124C80101960E9492079C0143
:1019A00099838883009721F1080F191F1B830A83ED
:1019B0001A8E9D838C830894E108F108EC9CC00189
:1019C000ED9C900DFC9C900D1124280F391F3F8336
:1019D0002E83BB8EAC8E8FEF8D8F8E8FCE010896AF
:1019E0000E94B907CE0141960E94B9079E0105C029
:1019F000CE010E94820720E030E0C901DF91CF9143
:101A00001F910F91FF90EF90DF90CF90BF90AF901C
:101A100008951F93162F60E00E94AA0CFC01009706
:101A200009F0128FCF011F910895FC0182859385E3
:101A30008E5B974059F48489958927E08C3A920708
:101A400029F020E0892B19F421E001C020E0822F49
:101A5000089580916B078F5F80936B0708950FB691
:101A6000F8940F922091690730916A070F900FBE8A
:101A7000C90108952091690730916A07C901089545
:101A800080916D07089580916B07882351F081E064
:101A90008093670708958091660781508093660759
:101AA00001C099E0E0916607E99FF0011124EE582A
:101AB000F84F8081882379F39091660789E0989F99
:101AC000D0011124AE58B84F1196ED91FC911297A8
:101AD0000280F381E02D1296FC93EE931197CD01D5
:101AE0000396E817F90731F48281938112969C934B
:101AF0008E9311971196ED91FC91129786819781A3
:101B000090936507809364070895FC0180916807AE
:101B100080838091690790916A07928381830895F9
:101B2000FC01DB010FB6F8940F924D915C91119777
:101B30008FEF4F3F580761F19091680780819817A8
:101B400049F02091690730916A07818192812817B5
:101B5000390700F58091690790916A0721813281E8
:101B6000821B930B84179507A8F4809169079091C5
:101B70006A07281B390B240F351F2D933C93809146
:101B8000680780838091690790916A0792838183B7
:101B900080E001C081E00F900FBE089581E0809346
:101BA000670708952091640730916507C90108957A
:101BB0000F931F93CF93DF93EC01009709F19E8958
:101BC00089A19817E9F08E010E5F1F4FC8010E948E
:101BD0002B0829A12E8B84E090E0821B91099D8720
:101BE0008C8780916607821710F42093660789E03E
:101BF000289FC00111248E58984FB8010E94CD072C
:101C0000DF91CF911F910F9108950F931F93CF9361
:101C1000DF93EC01E0916407F09165073E898689C6
:101C20003817C0F5E0916407F0916507268984E0D4
:101C300090E0821B91099D878C8789E0389FC001C5
:101C400011248E58984F2A853B8528173907E1F4CF
:101C50008E010E5F1F4FC8010E942B08E0916407A0
:101C6000F091650796899E8B80916607891710F41D
:101C70009093660789E0989FC00111248E58984F71
:101C8000B8010E94CD0706C0E0916407F091650796
:101C900086898E8BDF91CF911F910F9108950F93BD
:101CA0001F93CF93DF93FC010580F681E02D068121
:101CB0001781E8012C96CE010E942B0880916B07BA
:101CC0008823A9F4E8012296CE010E942B08D801AE
:101CD00056969C9180916607891710F49093660739
:101CE00089E0989FC00111248E58984F02C08CEA59
:101CF00097E0BE010E94CD07E0916407F09165076F
:101D000020E0D80156969C918689981708F021E02A
:101D1000822FDF91CF911F910F910895FF920F9322
:101D20001F93CF93DF9380916B07882309F08FC0B7
:101D30008091690790916A07019690936A07809352
:101D400069078091690790916A07892B79F520913D
:101D5000A8073091A9078091AA079091AB079093AB
:101D6000A9078093A8073093AB072093AA07809117
:101D700068078F5F80936807E091A807F091A90733
:101D80008081882319F48FEF9FEF0CC0E091A807A2
:101D9000F091A9070580F681E02D0680F781E02DFE
:101DA000828193819093F8018093F70120916907D4
:101DB00030916A078091F7019091F801281739074F
:101DC00008F44AC089E0F82EE091A807F091A9072D
:101DD0008081882339F48FEF9FEF9093F8018093EF
:101DE000F7013AC0E091A807F091A9070580F681B4
:101DF000E02DC681D7812A813B818091690790912E
:101E00006A078217930728F43093F8012093F701AB
:101E100023C08E010E5F1F4FC8010E942B088C89C2
:101E20009D89892B21F0CE010C960E942B089E895A
:101E300080916607891710F4909366079F9DC001F3
:101E400011248E58984FB8010E94CD07BDCF8091C4
:101E50006C078F5F80936C07DF91CF911F910F917B
:101E6000FF900895DF92EF92FF920F931F93CF930D
:101E7000DF93EC018A859B858E5B974091F58C8979
:101E80009D8927E08C3A920761F1892B51F533C087
:101E9000DE88E0916407F0916507068992E0E92EFB
:101EA000F12CEC0EFD1EC7010E942B086E8980915B
:101EB0006607861710F46093660710E0D01608F0E6
:101EC00011E089E0689FC00111248E58984FB70136
:101ED0000E94CD0707C02C968CEA97E0BE010E94B5
:101EE000CD0710E0812FDF91CF911F910F91FF90CF
:101EF000EF90DF90089580916B07882349F2EBCF34
:101F0000CF93DF93EC01E0916407F0916507938331
:101F100082838091690790916A07C817D90768F48E
:101F20008091AA079091AB07609164077091650753
:101F30006E5F7F4F0E94F60717C08091A8079091AF
:101F4000A90760916407709165076E5F7F4F0E94DB
:101F5000F6078091F7019091F801C817D90720F48E
:101F6000D093F801C093F701DF91CF910895CF93FB
:101F7000DF93EB016091640770916507645F7F4FA9
:101F80000E94F607809164079091650702960E946F
:101F90002B088FEFCF3FD80759F4609164077091F9
:101FA00065076E5F7F4F8EEB97E00E94CD0708C0FC
:101FB0008091690790916A078C0F9D1F0E94800F86
:101FC000DF91CF910895CF92DF92FF920F931F93ED
:101FD000DF93CF930F92CDB7DEB70FB6F8940F9281
:101FE00080916B07815080936B0780916B078823EA
:101FF00009F058C080916D07882309F453C01982F5
:1020000029E0F22E2DC0E091B107F091B207C68011
:10201000D780C6010C960E942B0886010E5F1F4FC9
:10202000C8010E942B08D60156969C9180916607A4
:10203000891710F4909366079F9DC00111248E5854
:10204000984FB8010E94CD07E0916407F0916507B1
:10205000D60156969C918689981710F0B1E0B98305
:102060008091AC07882379F680916C07882341F42E
:102070000CC00E948E0E80916C07815080936C077B
:1020800080916C078823A9F707C0E981E13021F02E
:1020900080916707813031F4109267070E942F0901
:1020A00081E001C080E00F900FBE0F90CF91DF91D3
:1020B0001F910F91FF90DF90CF9008950F931F9382
:1020C000CF93DF93EC01009709F43CC08091640743
:1020D00090916507C817D907A9F10FB6F8940F9228
:1020E0008A859B858E5B9740F1F48C899D8927E0DA
:1020F0008C3A9207C1F0892BB1F418C0909366070F
:1021000089E0989FC00111248E58984FB8010E9411
:10211000CD07E0916407F09165079E89868998173D
:1021200010F00E942F090F900FBE0CC08E010E5FA1
:102130001F4FC8010E942B089E898091660789174E
:10214000E8F2DECFDF91CF911F910F910895EF92CA
:10215000FF920F931F93CF93DF938C010FB6F894E8
:102160000F9280916407909165070817190719F479
:1021700000E010E003C00115110529F4C0916407C7
:10218000D091650701C0E80132E0E32EF12CEC0E9E
:10219000FD1EC7010E942B088C899D89892B21F087
:1021A000CE010C960E942B088EEB97E0B7010E949F
:1021B000CD070F900FBE012BA1F480916E078823ED
:1021C00019F00E942F090DC09091BE0780916D07F4
:1021D000981729F4109265071092640702C00E94B4
:1021E000430DDF91CF911F910F91FF90EF900895D4
:1021F0000F931F93CF93DF93EC010097C9F0809169
:102200006B078F5F80936B070091690710916A07D6
:10221000809164079091650702960E942B08CE0179
:10222000800F911F0E94800F0E94E30F882311F4FA
:102230000E942F09DF91CF911F910F910895CF93A5
:10224000DF93FC01EB0180916B078F5F80936B073D
:1022500020813181C20FD31F8091690790916A0755
:102260008217930728F4C217D30728F020E00CC088
:10227000C217D30740F08091690790916A0720E068
:102280008C179D0708F421E0D183C083222351F0ED
:10229000809164079091650702960E942B08CE01F9
:1022A0000E94800F0E94E30F882311F40E942F09DF
:1022B000DF91CF910895EF92FF920F931F93CF93E9
:1022C000DF938C010FB6F8940F9280916407909180
:1022D00065070817190719F400E010E003C001159D
:1022E000110529F4C0916407D091650701C0E80188
:1022F00042E0E42EF12CEC0EFD1EC7010E942B08DB
:102300008C899D89892B21F0CE010C960E942B0887
:1023100085EB97E0B7010E94CD0780916F078F5F33
:1023200080936F07809170078F5F809370070F9085
:102330000FBE80916E07882321F0012B11F40E94BB
:102340002F09DF91CF911F910F91FF90EF9008958A
:10235000F89410926E070E94D00808950F931F936F
:1023600080916F078823E1F380916B078F5F8093E3
:102370006B071091B5070E94E30F112389F30FB685
:10238000F8940F92E091BA07F091BB07068117818C
:10239000C80102960E942B0880916D07815080939E
:1023A0006D0780916F07815080936F070F900FBE6C
:1023B000F8018789908D0E948207C8010E948207D8
:1023C000CFCF2F923F925F926F927F928F929F9288
:1023D000AF92BF92CF92DF92EF92FF920F931F9333
:1023E000DF93CF9300D000D0CDB7DEB79A83898337
:1023F0004B015A011901502E370182E290E00E94F0
:1024000092078B839C838B819C81892B89F0C114DB
:10241000D10421F4C5010E9492076C01EB81FC817B
:10242000D08EC78AC114D10429F4CF010E9482073B
:102430008FEFDBC0C60165EA70E0A5010E944E2364
:102440000894A108B108EB81FC81E788F08CEA0CC4
:10245000FB1CCF014996B40148E050E00E9455238F
:10246000EB81FC8110A2052DF3E0F51508F403E0E3
:10247000EB81FC81068B01A362E0C62ED12CCE0E2F
:10248000DF1EC6010E94C9078B819C810C960E94A9
:10249000C9078B819C81FC019187808784E090E053
:1024A000801B910995878487F38BE28BC701698133
:1024B0007A81A1010E945308EB81FC819183808382
:1024C0006114710421F0CF01F301918380830FB671
:1024D000F8940F9280916D078F5F80936D078091C4
:1024E000640790916507892BE1F5EB81FC81F093FE
:1024F0006507E093640780916D07813009F042C061
:1025000082E797E00E94B9078BE797E00E94B9073E
:1025100084E897E00E94B9078DE897E00E94B90728
:1025200056E9E52E57E0F52EC7010E94B9070FE9DD
:1025300017E0C8010E94B9078CEA97E00E94B9072A
:1025400085EB97E00E94B9078EEB97E00E94B907F0
:10255000F092A907E092A8071093AB070093AA078F
:1025600011C080916E07882369F4E0916407F091AF
:1025700065078689581630F08B819C81909365079A
:1025800080936407EB81FC8196898091710789179C
:1025900010F490937107809170078F5F809370079C
:1025A000EB81FC81968980916607891710F49093DE
:1025B0006607EB81FC81868929E0829FC001112496
:1025C0008E58984FB6010E94CD070F900FBE809194
:1025D0006E07882349F0E0916407F09165078689CA
:1025E000851510F40E942F0981E00F900F900F9035
:1025F0000F90CF91DF911F910F91FF90EF90DF909F
:10260000CF90BF90AF909F908F907F906F905F9092
:102610003F902F900895AF92BF92CF92DF92EF92AA
:10262000FF920F938EEA91E160E670E044E650E09D
:1026300020E030E000E0EE24FF24CC24DD24AA24B6
:10264000BB240E94E111813049F4F89480936E0715
:1026500010926A07109269070E949B080F91FF90E1
:10266000EF90DF90CF90BF90AF9008958898899AAF
:10267000549A539A80B5806880BD80B58F7B80BDA9
:1026800080B58F7D80BD80B58F7E80BD80B5877F12
:1026900080BD80B5846080BD80B5826080BD80B51E
:1026A0008E7F80BD83E389B9579A08955D9BFECFE5
:1026B0008CB908955F9BFECF8CB108959093CA07A3
:1026C0008093C9077093C8076093C70708951F9246
:1026D0000F920FB60F9211242F933F934F935F9356
:1026E0006F937F938F939F93AF93BF93EF93FF93DA
:1026F000E091C707F091C8078CB18083E091C907CA
:10270000F091CA070995FF91EF91BF91AF919F9109
:102710008F917F916F915F914F913F912F910F908A
:102720000FBE0F901F901895DC01009711F483E005
:1027300008958091F901882309F47EC011962C91A7
:102740001197223008F05BC065B7E22FF0E09F01DF
:10275000220F331F41E050E0CA01022E02C0880F51
:10276000991F0A94E2F7982F782F7095672365BF19
:1027700085B72F5F3F4F02C0440F551F2A95E2F7E0
:10278000242F2095822385BF8C91813041F08130A8
:10279000B8F0823059F0833009F04EC00BC085B7D5
:1027A000982B95BF85B7282325BF0AC085B7782306
:1027B00075BF03C085B7982B95BF85B7482B45BF1C
:1027C00012968C91882319F08130B1F50CC02BB78B
:1027D000369681E090E002C0880F991FEA95E2F7F3
:1027E000282B2BBF27C02BB7369681E090E002C084
:1027F000880F991FEA95E2F7809582231AC022304C
:1028000011F082E0089584B78F7B84BF8C91823071
:1028100029F0833089F484B7806484BF12968C9148
:10282000882329F0813041F48BB78F7D02C08BB7AC
:1028300080628BBF81E0089580E00895FC010097DD
:1028400011F483E0089521812230D0F565B730E09E
:10285000220F331F41E050E0CA01022E02C0880F50
:10286000991F0A94E2F7982F782F7095672365BF18
:1028700085B72F5F3F4F02C0440F551F2A95E2F7DF
:10288000242F2095822385BF8081813039F08130CB
:1028900050F1823051F0833021F50BC085B7982B71
:1028A00095BF85B7282325BF1AC085B7782375BF84
:1028B00003C085B7982B95BF85B7482B45BF0FC080
:1028C000223011F082E0089584B78F7B84BF80812D
:1028D000823049F0833029F484B7806484BF81E07A
:1028E000089580E0089581E00895FC01009711F4B7
:1028F00083E008952181223078F44BB730E02A5FDD
:102900003F4F81E090E002C0880F991F2A95E2F7BF
:10291000482B4BBF81E00895223011F082E00895EA
:102920008BB780628BBF81E00895FC01009711F4A2
:1029300083E008952181223080F44BB730E02A5F94
:102940003F4F81E090E002C0880F991F2A95E2F77F
:10295000809584238BBF81E00895223011F082E0BE
:1029600008958BB78F7D8BBF81E00895FC010097A0
:1029700091F06115710579F0E181F0E0EE0FFF1F34
:10298000DF01AF52B84F6D937C93E553F84F5183FD
:10299000408381E0089583E008951F920F920FB65F
:1029A0000F9211242F933F934F935F936F937F93D5
:1029B0008F939F93AF93BF93EF93FF938091CB0738
:1029C0009091CC07009729F0E091D107F091D207C0
:1029D0000995FF91EF91BF91AF919F918F917F9159
:1029E0006F915F914F913F912F910F900FBE0F907C
:1029F0001F9018951F920F920FB60F9211242F93CC
:102A00003F934F935F936F937F938F939F93AF9376
:102A1000BF93EF93FF938091CD079091CE070097DE
:102A200029F0E091D307F091D4070995FF91EF9138
:102A3000BF91AF919F918F917F916F915F914F91D6
:102A40003F912F910F900FBE0F901F9018951F92DE
:102A50000F920FB60F9211242F933F934F935F93D2
:102A60006F937F938F939F93AF93BF93EF93FF9356
:102A70008091CF079091D007009729F0E091D5077A
:102A8000F091D6070995FF91EF91BF91AF919F917A
:102A90008F917F916F915F914F913F912F910F9007
:102AA0000FBE0F901F901895E199FECF07B600FC5E
:102AB000FDCF8EBB6DBBE29AE19A81E00895FB01E8
:102AC0006115710511F483E00895E199FECF8EBB85
:102AD000E09A8DB3808381E00895843010F082E025
:102AE0000895813049F0813028F0823039F0833008
:102AF00031F407C06ABB03C067BB01C064BB81E09F
:102B0000089561BB81E00895843008F06DC068309D
:102B100008F06AC0423008F067C08130F9F08130B7
:102B200030F0823091F1833009F05CC045C02AB3A7
:102B300081E090E0062E02C0880F991F0A94E2F708
:102B4000809582238ABB2AB3842F90E002C0880F2D
:102B5000991F6A95E2F7282B2ABB44C027B381E06E
:102B600090E0062E02C0880F991F0A94E2F7809524
:102B7000822387BB27B3842F90E002C0880F991F60
:102B80006A95E2F7282B27BB2DC024B381E090E0A3
:102B9000062E02C0880F991F0A94E2F780958223BF
:102BA00084BB24B3842F90E002C0880F991F6A95DC
:102BB000E2F7282B24BB16C021B381E090E0062E5B
:102BC00002C0880F991F0A94E2F78095822381BB87
:102BD00021B3842F90E002C0880F991F6A95E2F715
:102BE000282B21BB81E0089582E00895843010F005
:102BF00082E00895813049F0813028F0823039F048
:102C0000833031F407C06BBB03C068BB01C065BB38
:102C100081E0089562BB81E00895843008F06DC0C2
:102C2000683008F06AC0423008F067C08130F9F0BF
:102C3000813030F0823091F1833009F05CC045C0C2
:102C40002BB381E090E0062E02C0880F991F0A94F2
:102C5000E2F7809582238BBB2BB3842F90E002C0D8
:102C6000880F991F6A95E2F7282B2BBB44C028B325
:102C700081E090E0062E02C0880F991F0A94E2F7C7
:102C80008095822388BB28B3842F90E002C0880FF0
:102C9000991F6A95E2F7282B28BB2DC025B381E048
:102CA00090E0062E02C0880F991F0A94E2F78095E3
:102CB000822385BB25B3842F90E002C0880F991F23
:102CC0006A95E2F7282B25BB16C022B381E090E07D
:102CD000062E02C0880F991F0A94E2F7809582237E
:102CE00082BB22B3842F90E002C0880F991F6A959F
:102CF000E2F7282B22BB81E0089582E00895FB01D2
:102D00006115710511F483E00895843010F082E0BC
:102D10000895813049F0813028F0823039F08330D5
:102D200039F408C089B303C086B301C083B380837C
:102D300081E0089580B3808381E00895FA01411510
:102D4000510511F483E008958430E0F46830D0F444
:102D5000813049F0813028F0823039F0833081F4BD
:102D600006C089B305C086B303C083B301C080B376
:102D700090E002C0959587956A95E2F7817080830F
:102D800081E0089582E00895843010F082E0089593
:102D9000813059F0813028F0823059F0833061F46D
:102DA0000DC08BB380958BBB07C088B3809588BB63
:102DB00003C085B3809585BB81E0089582B380957B
:102DC00082BB81E008958430C0F56830B0F5813071
:102DD00091F0813028F08230C9F0833061F521C054
:102DE0002BB381E090E002C0880F991F6A95E2F74B
:102DF00028272BBB20C028B381E090E002C0880FB9
:102E0000991F6A95E2F7282728BB15C025B381E0F2
:102E100090E002C0880F991F6A95E2F7282725BB2A
:102E20000AC022B381E090E002C0880F991F6A9522
:102E3000E2F7282722BB81E0089582E00895379ABF
:102E4000369A80E487B986B1876086B9339A089547
:102E5000369A0895349BFECF24B135B1C901089547
:102E60009093E9078093E807842F8150883090F48D
:102E70004093EA07E7EDF7E09B0150E0440F551F50
:102E80004E0F5F1F04C0219331932E5F3F4FE41715
:102E9000F507C9F708951F920F920FB60F921124EC
:102EA0002F933F934F935F936F937F938F939F9352
:102EB000AF93BF93EF93FF932091E7072F5F20938A
:102EC000E707809103028434E9F1853450F48234B9
:102ED00029F1833468F5803469F0813409F05CC0ED
:102EE00013C0863409F442C08634B0F1873409F047
:102EF00053C046C0E091D707F091D80784B195B18F
:102F00009183808381E445C0E091D907F091DA078D
:102F100084B195B19183808382E43BC0E091DB076B
:102F2000F091DC0784B195B19183808383E431C053
:102F3000E091DD07F091DE0784B195B19183808344
:102F400084E427C0E091DF07F091E00784B195B1F8
:102F50009183808385E41DC0E091E107F091E20751
:102F600084B195B19183808386E413C0E091E30737
:102F7000F091E40784B195B19183808387E409C01F
:102F8000E091E507F091E60784B195B191838083E4
:102F900080E487B9809303028091EA07281731F40F
:102FA0001092E70780E487B980930302E091E80775
:102FB000F091E9070995FF91EF91BF91AF919F9132
:102FC0008F917F916F915F914F913F912F910F90D2
:102FD0000FBE0F901F9018950F931F93CF93DF9301
:102FE000982FEB016115710511F483E06CC080919D
:102FF0000402981708F066C083E0989F80011124AE
:10300000E0911102F0911202E00FF11F82818130F4
:1030100061F580816181AE010E949E1688818823BE
:1030200009F050C080E29EE40197F1F7E0911102AF
:10303000F0911202E00FF11F80816181AE010E94C8
:103040009E168881882361F03DC0E0911102F091C5
:103050001202E00FF11F80816181AE010E949E1675
:103060008881882391F318822DC0882359F58081A7
:103070006181AE010E949E168881882319F180E249
:103080009EE40197F1F7E0911102F0911202E00F36
:10309000F11F80816181AE010E949E168881882384
:1030A00061F410C0E0911102F0911202E00FF11FE3
:1030B00080816181AE010E949E168881882391F7EC
:1030C00081E0888380E0DF91CF911F910F91089577
:1030D000FF920F93DF93CF9300D0CDB7DEB78091EF
:1030E000110290911202892B11F483E027C000E0B5
:1030F00083E0F82E1EC00F9DC00111249A8389839E
:10310000E0911102F0911202E80FF91F80816181B4
:1031100040E00E948415E0911102F0911202A98111
:10312000BA81EA0FFB1F8081618142810E940D16E6
:103130000F5F809104020817F0F281E00F900F906A
:10314000CF91DF910F91FF900895FC0180896189F3
:1031500040E00E940D1681E00895FC01808961899C
:1031600041E00E940D1681E00895FC01808161819B
:1031700040E00E940D1681E00895FC01808161818C
:1031800041E00E940D1681E008951F93CF93DF93D5
:10319000EC01162F603110F082E0A8C08A898330DC
:1031A00021F0863009F0A1C04EC08A816B8141E0D8
:1031B0000E940D168C816D8141E00E940D168E815A
:1031C0006F8141E00E940D168885698541E00E946B
:1031D0000D168A856B8541E00E940D168C856D85E4
:1031E00041E00E940D168E856F8541E00E940D160C
:1031F000E12FF0E0E95AFD4F1081412F41708A81A3
:103200006B810E940D16412F42708C816D810E944E
:103210000D16412F44708E816F810E940D16412F33
:103220004870888569850E940D16412F40718A85F6
:103230006B850E940D16412F40728C856D850E9412
:103240000D1610744DC08A816B8140E00E940D16EE
:103250008C816D8140E00E940D168E816F8140E06F
:103260000E940D168885698540E00E940D168A85AA
:103270006B8540E00E940D168C856D8540E00E94B4
:103280000D168E856F8540E00E940D16E12FF0E04F
:10329000E95AFD4F1081412F4E7F8A816B810E9438
:1032A0000D16412F4D7F8C816D810E940D16412F8F
:1032B0004B7F8E816F810E940D16412F477F88853D
:1032C00069850E940D16412F4F7E8A856B850E946D
:1032D0000D16412F4F7D8C856D850E940D161F7B2D
:1032E0008E856F85412F0E940D1681E0DF91CF9171
:1032F0001F910895CF92DF92EF92FF920F93DF9389
:10330000CF9300D0CDB7DEB76C01062F009711F434
:1033100083E039C06031B0F1FC018081618141E01E
:103320000E940D16C60143969A838983F60183890C
:10333000E981FA81618140E00E940D16602F6F7073
:10334000C6010E94C51880E2E82E8EE4F82EC7015F
:103350000197F1F7F6018389E981FA81618141E002
:103360000E940D16F6018081618140E00E940D16D9
:1033700002950F7089819A81602F0E94C518C7013C
:103380000197F1F781E00F900F90CF91DF910F91AE
:10339000FF90EF90DF90CF900895EF92FF920F9300
:1033A0001F93CF93DF937C01009711F483E08DC0CE
:1033B00010E003E184C0109FE0011124CE0DDF1D59
:1033C0008881698141E00E9484158A816B8141E096
:1033D0000E9484158C816D8141E00E9484158E814C
:1033E0006F8141E00E9484158885698541E00E94D3
:1033F00084158A856B8541E00E9484158C856D85D6
:1034000041E00E9484158E856F8541E00E948415FD
:103410008889698941E00E9484158881698141E039
:103420000E940D168A89833021F0863009F046C04B
:1034300022C08A816B8141E00E940D168C816D81D2
:1034400041E00E940D168E816F8141E00E940D16B1
:103450008885698541E00E940D168A856B8541E06B
:103460000E940D168C856D8541E00E940D168E859B
:103470006F8541E021C08A816B8140E00E940D167A
:103480008C816D8140E00E940D168E816F8140E03D
:103490000E940D168885698540E00E940D168A8578
:1034A0006B8540E00E940D168C856D8540E00E9482
:1034B0000D168E856F8540E00E940D161F5F80916E
:1034C0001302181708F477CF81E0DF91CF911F9195
:1034D0000F91FF90EF90089590E0880F991FE09171
:1034E0003F02F0914002E80FF91F8081618140E0C6
:1034F0000E940D1681E0089590E0880F991FE091D9
:103500003F02F0914002E80FF91F8081618141E0A4
:103510000E940D1681E00895FF920F931F938091F2
:103520003F0290914002892B11F483E022C0FF24D6
:103530001BC00F2D10E0000F111FE0913F02F09112
:103540004002E00FF11F8081618141E00E948415FB
:10355000E0913F02F0914002E00FF11F8081618114
:1035600040E00E940D16F39480913A02F81608F399
:1035700080E01F910F91FF900895982FAB01611586
:10358000710511F483E0089580914102981710F0BD
:1035900081E00895892F90E0880F991FE0914802FB
:1035A000F0914902E80FF91F808161810E949E1607
:1035B00081E00895982F80914102981770F4892F27
:1035C00090E0880F991FE0914802F0914902E80FBE
:1035D000F91F808161810E94E31681E00895982F90
:1035E00080914102981778F4892F90E0880F991FF5
:1035F000E0914802F0914902E80FF91F8081618152
:1036000040E00E940D1681E00895982F80914102BC
:10361000981778F4892F90E0880F991FE09148025D
:10362000F0914902E80FF91F8081618141E00E9419
:103630000D1681E008951F938091480290914902F0
:10364000892B11F483E017C010E010C0812F90E0A7
:10365000880F991FE0914802F0914902E80FF91F85
:103660008081618141E00E940D161F5F80914102BF
:10367000181760F381E01F9108951F93809148020D
:1036800090914902892B11F483E017C010E010C01B
:10369000812F90E0880F991FE0914802F091490234
:1036A000E80FF91F8081618140E00E940D161F5FC5
:1036B00080914102181760F381E01F910895FF92F5
:1036C0000F931F93FF241BC00F2D10E0000F111F3D
:1036D000E0914802F0914902E00FF11F8081618181
:1036E00041E00E948415E0914802F0914902E00F08
:1036F000F11F8081618140E00E940D16F39480915A
:103700004102F81608F381E01F910F91FF90089590
:10371000FF920F931F93F82E83E063E040E00E9436
:103720000D164F2D441F4427441F82E067E00E947E
:103730000D164F2D429546954695417082E066E004
:103740000E940D164F2D42954695417082E065E02E
:103750000E940D164F2D4295417082E064E00E9458
:103760000D1683E063E041E00E940D1600E21EE4C6
:10377000C8010197F1F783E063E040E00E940D1675
:10378000C8010197F1F74F2D469546954695417032
:1037900082E067E00E940D164F2D469546954170D8
:1037A00082E066E00E940D164F2D4695417082E042
:1037B00065E00E940D1681E0F82282E064E04F2D62
:1037C0000E940D1683E063E041E00E940D1600E1C7
:1037D00017E2C8010197F1F783E063E040E00E943F
:1037E0000D16C8010197F1F781E01F910F91FF902D
:1037F00008951F93182F83E061E041E00E940D16A9
:1038000083E062E040E00E940D1683E063E040E068
:103810000E940D16812F0E94881B81E01F91089540
:103820005F926F927F928F929F92AF92BF92CF9250
:10383000DF92EF92FF920F931F935B016C01611572
:1038400071058105910521F480E30E94F91B53C0A5
:1038500097FF0BC08DE20E94F91BD094C094B094E6
:10386000A094A11CB11CC11CD11C66247724430167
:1038700055245394C401B3012AE030E040E050E005
:103880000E94A6227B018C01C601B5010E94F32291
:103890003B014C016E0C7F1C801E911EC601B501C0
:1038A0002AE030E040E050E00E94F322C901DA0152
:1038B0005C016D01A114B104C104D104D1F619C099
:1038C000C401B3012AE030E040E050E00E94D12280
:1038D000862F805D0E94F91BC401B3012AE030E00D
:1038E00040E050E00E94D122C901DA013C014D01C3
:1038F0005A94552029F781E01F910F91FF90EF9086
:10390000DF90CF90BF90AF909F908F907F906F90FF
:103910005F900895AF92BF92CF92DF92EF92FF92A5
:103920000F931F935B016C0120E030E040E050E01A
:103930000E94ED02882321F480E30E94F91B45C018
:10394000C601B5010E947B037B018C010E94101C03
:103950008EE20E94F91BC801B7010E941D039B0162
:10396000AC01C601B5010E94950120E034E244E7B4
:1039700059E40E94F3010E947B03E62ED72EC82E45
:10398000B92E0EC06E2D7D2D8C2D9B2D2AE030E0A2
:1039900040E050E00E94F322E22ED32EC42EB52E3A
:1039A0006E2D7D2D8C2D9B2D2AE030E040E050E0E7
:1039B0000E94F322611571058105910519F36E2DA1
:1039C0007D2D8C2D9B2D0E94101C81E01F910F914D
:1039D000FF90EF90DF90CF90BF90AF9008951F932E
:1039E000CF93DF93EC01009711F483E00CC010E05B
:1039F00003C01F5F0E94F91BFE01E10FF11D8081D2
:103A00008823B9F781E0DF91CF911F9108951F932B
:103A1000182F83E061E040E00E940D1683E062E031
:103A200040E00E940D1683E063E040E00E940D1626
:103A3000812F0E94881B81E01F9108950F931F938F
:103A4000CF93DF938B016115710511F483E013C0EF
:103A5000880F880F880F805C0E94071DC0E0D0E0AF
:103A6000F801EC0FFD1F80810E94F91B2196C830E0
:103A7000D105B1F780E0DF91CF911F910F910895AB
:103A8000833080F4613170F4813019F0823051F468
:103A900003C0862F815802C0862F81540E94071DC3
:103AA00081E0089582E00895FF920F931F93F82E0E
:103AB000062F142F81E065E00E94401D1A3018F493
:103AC00080E30E94F91B612F70E080E090E00E948B
:103AD000101C8AE30E94F91B0A3018F480E30E944C
:103AE000F91B602F70E080E090E00E94101C8AE3D8
:103AF0000E94F91B89E08F1518F080E30E94F91BE2
:103B00006F2D70E080E090E00E94101C80EC0E941D
:103B1000071D81E01F910F91FF9008950F931F9350
:103B20008EE591E028EC30E0F9013197F1F701974B
:103B3000D9F783E061E041E00E94841583E062E010
:103B400041E00E94841583E063E041E00E94841517
:103B500082E067E041E00E94841582E066E041E097
:103B60000E94841582E065E041E00E94841582E0B5
:103B700064E041E00E94841583E061E040E00E943F
:103B80000D1682E067E040E00E940D1682E066E0DC
:103B900040E00E940D1682E065E041E00E940D16B3
:103BA00082E064E040E00E940D1683E063E041E0C3
:103BB0000E940D1600E117E2C8010197F1F783E0BA
:103BC00063E040E00E940D16C8010197F1F788E21A
:103BD0000E94881B00ED17E0C8010197F1F78CE007
:103BE0000E94881BC8010197F1F781E00E94881BA1
:103BF00080EA9FE00197F1F786E00E94881B80E051
:103C00001F910F9108953F924F925F926F927F9212
:103C10008F929F92AF92BF92CF92DF92EF92FF92DC
:103C20000F931F93DF93CF93CDB7DEB7A1970FB656
:103C3000F894DEBF0FBECDBF4C01009711F483E0B6
:103C400093C081E08A838B838C838D8334E03E83B1
:103C500025E02F8396E0988787E0898782E08A872E
:103C60008B878C878D8783E08E873F87288B998B06
:103C70008FEF89834424EE24FF243E010894611CC5
:103C8000711CEAE0F0E0EC0FFD1FEE0DFF1D30802F
:103C9000EEE0F0E0EC0FFD1FEE0DFF1D5080832DD8
:103CA000652D40E00E940D1682E1C82ED12CCC0E6D
:103CB000DD1ECE0CDF1C00E010E0E2E0F0E0EC0FD7
:103CC000FD1FE00FF11FA080E6E0F0E0EC0FFD1F0C
:103CD000E00FF11FB0808A2D6B2DA3010E949E166C
:103CE0008981882321F580E29EE40197F1F78A2DEE
:103CF0006B2DA3010E949E168981882331F017C085
:103D00008A2D6B2DA3010E949E1689818823C1F301
:103D1000DE015296E7E6F2E080E101900D928150DB
:103D2000E1F7F6018081F4018083442443940F5F1E
:103D30001F4F84E090E0C80ED91E0430110509F031
:103D4000BCCF832D652D41E00E940D160894E11C27
:103D5000F11C94E0E916F10409F093CF442019F422
:103D60008FEFF401808380E0A1960FB6F894DEBF58
:103D70000FBECDBFCF91DF911F910F91FF90EF90BC
:103D8000DF90CF90BF90AF909F908F907F906F907B
:103D90005F904F903F90089582E063E041E00E9481
:103DA000841582E064E041E00E94841582E065E0D1
:103DB00041E00E94841582E066E041E00E948415A3
:103DC00082E063E041E00E940D1682E064E041E0A1
:103DD0000E940D1682E065E041E00E940D1682E02F
:103DE00066E041E00E940D1681E064E040E00E9440
:103DF000841581E065E040E00E94841581E066E082
:103E000040E00E94841581E067E040E00E94841554
:103E100081E064E041E00E940D1681E065E041E050
:103E20000E940D1681E066E041E00E940D1681E0DF
:103E300067E041E00E940D1681E008950E945A1348
:103E40008093EB0708950E9436130895CF93DF9374
:103E5000C82FD0E0CC0FDD1FE0914D02F0914E0253
:103E6000EC0FFD1F8081618141E00E940D1680E111
:103E700097E228EC30E0F9013197F1F70197D9F793
:103E8000E0914D02F0914E02EC0FFD1F80816181A7
:103E900040E00E940D1681E0DF91CF910895CF930D
:103EA000DF93C82FD0E0CC0FDD1FE0914D02F091E1
:103EB0004E02EC0FFD1F8081618141E00E940D16D2
:103EC00088EE93E028EC30E0F9013197F1F70197A3
:103ED000D9F7E0914D02F0914E02EC0FFD1F808169
:103EE000618140E00E940D1681E0DF91CF9108953D
:103EF00090E0880F991FE0914D02F0914E02E80F7B
:103F0000F91F8081618140E00E940D1681E00895D3
:103F100090E0880F991FE0914D02F0914E02E80F5A
:103F2000F91F8081618141E00E940D1681E00895B2
:103F3000CF93DF93C82FD0E0CC0FDD1FE0914D026F
:103F4000F0914E02EC0FFD1F8081618141E00E94E3
:103F50000D1680ED97E028EC30E0F9013197F1F78C
:103F60000197D9F7E0914D02F0914E02EC0FFD1F41
:103F7000808161810E94E31680ED97E028EC30E0BB
:103F8000F9013197F1F70197D9F7E0914D02F091DE
:103F90004E02EC0FFD1F808161810E94E31680EDCF
:103FA00097E028EC30E0F9013197F1F70197D9F764
:103FB000E0914D02F0914E02EC0FFD1F8081618176
:103FC0000E94E31680ED97E028EC30E0F90131978C
:103FD000F1F70197D9F7E0914D02F0914E02EC0F05
:103FE000FD1F808161810E94E31680ED97E028EC3F
:103FF00030E0F9013197F1F70197D9F7E0914D02DF
:10400000F0914E02EC0FFD1F8081618140E00E9423
:104010000D1681E0DF91CF910895CF93DF93C82FE4
:10402000D0E0CC0FDD1FE0914D02F0914E02EC0F7D
:10403000FD1F8081618141E00E940D1680ED97E0B7
:1040400028EC30E0F9013197F1F70197D9F7E091C9
:104050004D02F0914E02EC0FFD1F808161810E94A4
:10406000E31680ED97E028EC30E0F9013197F1F7A5
:104070000197D9F7E0914D02F0914E02EC0FFD1F30
:10408000808161810E94E31680ED97E028EC30E0AA
:10409000F9013197F1F70197D9F7E0914D02F091CD
:1040A0004E02EC0FFD1F8081618140E00E940D16E1
:1040B00081E0DF91CF91089590E0880F991FE09102
:1040C0004D02F0914E02E80FF91F808161810E943C
:1040D000E31681E00895FF920F931F9380914D02A4
:1040E00090914E02892B11F483E022C0FF241BC063
:1040F0000F2D10E0000F111FE0914D02F0914E02C4
:10410000E00FF11F8081618141E00E948415E09100
:104110004D02F0914E02E00FF11F8081618140E07D
:104120000E940D16F39480914A02F81608F381E07C
:104130001F910F91FF900895DF92EF92FF920F93DE
:104140001F93FF2488E5D82EEE24EA948091F2078D
:104150009091F3070E94A7108091F0079091F107CA
:104160000E94A710D092560281E00E94071D81E0B4
:1041700061E00E94401D85E690E00E94EF1C82E015
:1041800061E00E94401D82E00E94EF1A01E010E011
:104190008FE492E00E94031E80914F028F3FC1F393
:1041A000E0915402F0915502E10FF11DE081EE2300
:1041B00031F0013021F4E81731F41F5F05C08D3371
:1041C00041F0013009F400E08AE20E94F91B1F303F
:1041D000F8F2E0924F02013029F581E00E94071DBC
:1041E00084E790E00E94EF1C80E00E940D2088EEA2
:1041F00093E00E94F8108091F2079091F3070E94DB
:104200005E108091F0079091F1070E945E1082E0AD
:104210000E94051B8091EE079091EF070E94A71066
:10422000FF2494CFF39481E00E94071D82E890E080
:104230000E94EF1C82E061E00E94401D8FE890E048
:104240000E94EF1C8F2D805D0E94F91B8F2D63E073
:104250000E94C522992359F480E00E94881F88EEAD
:1042600093E00E94F81080E00E94781F6FCF88EEE4
:1042700093E00E94F8106ACFCF92DF92EF92FF9204
:104280000F931F93EE24FF24F39401E011E0CC245C
:10429000CA949DE4D92E8091EC079091ED0760E0DF
:1042A00070E042E350E020E00E94310A813009F0E2
:1042B000AAC080915602883509F058C0EE20C1F49A
:1042C000D092560281E00E94071D87E990E00E948B
:1042D000EF1C80EA90E00E94EF1C82E061E00E9407
:1042E000401D88EA90E00E94EF1CEE24E3943EC05B
:1042F00081E0E816D9F5D09256020E94071D86EBA0
:1043000090E00E94EF1C8FEB90E00E94EF1C82E097
:1043100061E00E94401D87EC90E00E94EF1C82E06B
:1043200068E00E94401D112319F484ED90E002C062
:104330008BED90E00E94EF1C81E065E00E94401D43
:10434000002319F482EE90E002C086EE90E00E9415
:10435000EF1C81E06DE00E94401DFF2019F482EE09
:1043600090E002C086EE90E00E94EF1C8091500227
:104370008F3FF1F18233B1F0833331F18133B1F505
:1043800082E068E00E94401D112331F484ED90E04A
:104390000E94EF1C11E02AC08BED90E00E94EF1C00
:1043A00010E024C081E065E00E94401D002331F44C
:1043B00082EE90E00E94EF1C01E018C086EE90E0D3
:1043C0000E94EF1C00E012C081E06DE00E94401DE1
:1043D000FF2039F482EE90E00E94EF1CFF24F3945A
:1043E00005C086EE90E00E94EF1CFF24C0925002B0
:1043F0008091EC079091ED0760E070E040E050E0C4
:1044000020E00E94B70B84E690E00E94F81043CFB2
:104410001F931FEF8091EC079091ED0760E070E033
:1044200042E350E020E00E94310A8130B1F58FE490
:1044300092E00E94031E80914F028F3F19F18093FA
:104440005002823361F0833318F48133C9F405C01C
:10445000833349F08433A1F40AC081E001C080E0D5
:104460000E94DA1A0DC080E00E945C2009C082E040
:104470000E94DA1A8091EE079091EF070E945E1079
:1044800010934F028091EC079091ED0760E070E08F
:1044900040E050E020E00E94B70B8AE090E00E94EC
:1044A000F810B8CFAF92BF92CF92DF92EF92FF9207
:1044B0000F930E946B200E948E1D0E94CC1E0E94B2
:1044C0005F1B8CE990E260E070E04CE251E020E09C
:1044D00030E003E0AEEEEA2EA7E0FA2ECC24DD2495
:1044E000AA24BB240E94E11188E092E260E070E01F
:1044F0004CE251E020E030E002E0F0EFEF2EF7E098
:10450000FF2E0E94E1118CE391E260E070E04CE24A
:1045100051E020E030E001E0E2EFEE2EE7E0FE2E99
:104520000E94E11181E060E00E94AA0C9093ED07E7
:104530008093EC07009739F060E070E040E050E0D5
:1045400020E00E94B70B0E940B13FFCF629FD001A7
:10455000739FF001829FE00DF11D649FE00DF11D3E
:10456000929FF00D839FF00D749FF00D659FF00DED
:104570009927729FB00DE11DF91F639FB00DE11DDA
:10458000F91FBD01CF0111240895991B79E004C0E2
:10459000991F961708F0961B881F7A95C9F7809582
:1045A0000895A1E21A2EAA1BBB1BFD010DC0AA1F74
:1045B000BB1FEE1FFF1FA217B307E407F50720F08C
:1045C000A21BB30BE40BF50B661F771F881F991F07
:1045D0001A9469F760957095809590959B01AC0150
:1045E000BD01CF01089597FB092E05260ED057FD7A
:1045F00004D0D7DF0AD0001C38F450954095309590
:1046000021953F4F4F4F5F4F0895F6F79095809556
:10461000709561957F4F8F4F9F4F08952F923F92D6
:104620004F925F926F927F928F929F92AF92BF92C2
:10463000CF92DF92EF92FF920F931F93CF93DF936E
:10464000CDB7DEB7CA1BDB0B0FB6F894DEBF0FBECB
:10465000CDBF09942A88398848885F846E847D8418
:104660008C849B84AA84B984C884DF80EE80FD801A
:104670000C811B81AA81B981CE0FD11D0FB6F89490
:10468000DEBF0FBECDBFED010895FB01DC0102C00E
:1046900001900D9241505040D8F70895DC0101C0BF
:1046A0006D9341505040E0F70895FB01DC0141500B
:1046B000504048F001900D920020C9F701C01D92B2
:0C46C00041505040E0F70895F894FFCFFF
:1046CC0049444C4500456E74657220506173737794
:1046DC006F7264002020202057656C636F6D65201D
:1046EC002100202020202057726F6E67202100545B
:1046FC007269616C20200045203D204F4646200009
:10470C0042203D204F464600446F6F72203D2043AF
:10471C006C6F7365640045203D20202020200042F2
:10472C00203D2020202000446F6F72203D2020204F
:10473C0020202000436C6F736564004F70656E2001
:10474C0020004F4646004F4E2000313233340000DB
:10475C000000000000000000010202030303030438
:10476C0004040404040404050505050505050505F4
:10477C0005050505050505060606060606060606D4
:10478C0006060606060606060606060606060606BD
:10479C0006060606060606070707070707070707A4
:1047AC00070707070707070707070707070707078D
:1047BC00070707070707070707070707070707077D
:1047CC00070707070707070707070707070707076D
:1047DC000707070707070708080808080808080854
:1047EC00080808080808080808080808080808083D
:1047FC00080808080808080808080808080808082D
:10480C00080808080808080808080808080808081C
:10481C00080808080808080808080808080808080C
:10482C0008080808080808080808080808080808FC
:10483C0008080808080808080808080808080808EC
:10484C0008080808080808080808080808080808DC
:10485C0008080808080808FFFF030300000201000D
:10486C0002020040040302010303010304010305D7
:10487C00010502020206000100020003000400050B
:10488C0000060007010003020700010002000300FC
:10489C000400050006000701000302020402033BAA
:1048AC00020302000201020242020103024B02FF58
:1048BC00FF585858EA00583F065B4F666D7D077FDE
:1048CC006F777C395E79713738392F3435367831DA
:0848DC0032332D43303D2B0067
:00000001FF
