:100000000C942A000C9447000C9447000C94470071
:100010000C9447000C9447000C9447000C942C0956
:100020000C9447000C9447000C9447000C94470034
:100030000C9447000C9467130C9447000C944700F1
:100040000C9473150C9447000C9447000C944700D3
:100050000C94470011241FBECFE5D8E0DEBFCDBF12
:1000600012E0A0E6B0E0ECE1FEE302C005900D92E4
:10007000AE36B107D9F717E0AEE6B2E001C01D9287
:10008000A53DB107E1F70E94FB1D0C940C1F0C94D9
:100090000000A0E0B0E0EFE4F0E00C94B61EDC015C
:1000A0002B01FA019C91923008F439C1EB0188814F
:1000B000823008F433C1943069F4843009F02FC1E0
:1000C00011969C9111978981981709F428C1ACE386
:1000D000B1E025C1843009F421C18230A9F4923005
:1000E00009F01DC19A01AD0188E0EA010990AE0155
:1000F000E90109929E018150C1F7E20189811196BF
:100100009C918923818308C1923009F407C112961A
:100110002D903C901397EB018A819B811496AD90B2
:10012000BD90CD90DC901797EC80FD800E811F81F3
:100130009101281B390BB90137FF04C066277727C7
:10014000621B730B603271050CF061C0121613064E
:100150006CF537014801062E04C096948794779475
:1001600067940A94D2F721E030E040E050E004C008
:10017000220F331F441F551F6A95D2F7215030407C
:10018000404050402E213F2140235123211531056D
:100190004105510521F021E030E040E050E07901D7
:1001A0008A01E628F728082919293CC0232BD1F118
:1001B000260E371E35014601062E04C096948794FC
:1001C000779467940A94D2F721E030E040E050E061
:1001D00004C0220F331F441F551F6A95D2F72150C8
:1001E0003040404050402A213B214C215D212115C7
:1001F00031054105510521F021E030E040E050E0BB
:1002000059016A01A628B728C828D9280BC0821529
:1002100093052CF01C01AA24BB24650103C0EE2425
:10022000FF24870111969C91D20111968C91981709
:1002300009F445C0992339F0A80197012A193B090F
:100240004C095D0906C0A60195012E193F09400B16
:10025000510B57FD08C011823382228224833583DB
:10026000468357831DC081E08183338222828827A1
:100270009927DC01821B930BA40BB50B8483958318
:10028000A683B7830DC0220F331F441F551F24833D
:100290003583468357838281938101979383828339
:1002A0002481358146815781DA01C9010197A1096D
:1002B000B1098F5F9F4FAF4FBF4328F30BC09183AE
:1002C00033822282EA0CFB1C0C1D1D1DE482F58288
:1002D0000683178383E0808324813581468157819B
:1002E00057FF1AC0C901AA2797FDA095BA2F8170A0
:1002F0009070A070B0705695479537952795822BD2
:10030000932BA42BB52B84839583A683B7838281FB
:100310009381019693838283DF0101C0D201CD01D5
:10032000CDB7DEB7E2E10C94D21EA0E2B0E0EBE97B
:10033000F1E00C94C21E69837A838B839C832D83A6
:100340003E834F835887E9E0EE2EF12CEC0EFD1E24
:10035000CE010196B7010E94F3048E010F5E1F4F7C
:10036000CE010596B8010E94F3048A8991E089279D
:100370008A8BC701B801AE01475E5F4F0E944900FA
:100380000E941E04A096E6E00C94DE1EA0E2B0E0FF
:10039000ECECF1E00C94C21E69837A838B839C831E
:1003A0002D833E834F835887F9E0EF2EF12CEC0E1E
:1003B000FD1ECE010196B7010E94F3048E010F5E6F
:1003C0001F4FCE010596B8010E94F304C701B80182
:1003D000AE01475E5F4F0E9449000E941E04A09636
:1003E000E6E00C94DE1EA0E2B0E0E9EFF1E00C9450
:1003F000B61E69837A838B839C832D833E834F83D0
:100400005887CE010196BE01675F7F4F0E94F304BB
:10041000CE010596BE016F5E7F4F0E94F304998561
:10042000923088F089898230C8F0943019F4823093
:1004300051F404C0843029F4923081F48CE391E0CB
:10044000C6C0923049F420E09A858A89981321E049
:100450002A87CE010996BBC0823049F420E09A85F4
:100460008A89981321E02A8BCE014196B0C02D8451
:100470003E844F8458886D887E888F88988CEE24BF
:10048000FF248701AA24BB24650140E050E060E01E
:1004900070E0E0E0F0E0C10181709070892BE9F03C
:1004A000E60CF71C081D191D9A01AB012A0D3B1D16
:1004B0004C1D5D1D80E090E0A0E0B0E0E614F70484
:1004C0000805190520F481E090E0A0E0B0E0BA0151
:1004D000A901480F591F6A1F7B1FAA0CBB1CCC1C0B
:1004E000DD1C97FE08C081E090E0A0E0B0E0A82A03
:1004F000B92ACA2ADB2A3196E032F10549F0660CA6
:10050000771C881C991C5694479437942794C3CF22
:10051000FA85EA892B893C898B859C85280F391FB0
:100520002E5F3F4F17C0CA0181709070892B61F018
:1005300016950795F794E79480E090E0A0E0B0E886
:10054000E82AF92A0A2B1B2B76956795579547952C
:100550002F5F3F4F77FDE7CF0CC0440F551F661F3D
:10056000771F17FD4160EE0CFF1C001F111F21506B
:100570003040403090E0590790E0690790E47907F7
:1005800060F32B8F3C8FDB01CA018F779070A070D6
:10059000B07080349105A105B10561F447FD0AC032
:1005A000E114F1040105110529F0405C5F4F6F4F24
:1005B0007F4F40781A8EFE1711F081E08A8F4D8FA1
:1005C0005E8F6F8F78A383E0898FCE0149960E945A
:1005D0001E04A096E2E10C94D21EA8E1B0E0E3EF85
:1005E000F2E00C94C21E69837A838B839C832D83F3
:1005F0003E834F83588789E0E82EF12CEC0EFD1ED8
:10060000CE010196B7010E94F3048E010F5E1F4FC9
:10061000CE010596B8010E94F3048985823040F02E
:100620008989823028F0C701B8010E946B0501C09A
:1006300081E06896E6E00C94DE1EA8E0B0E0E3E21C
:10064000F3E00C94BF1E9B01AC0183E08983DA01C7
:10065000C9018827B7FD83959927AA27BB27B82EFC
:10066000211531054105510519F482E089833AC00D
:100670008823A9F0203080E0380780E0480780E830
:10068000580729F460E070E080E09FEC30C0EE2471
:10069000FF248701E21AF30A040B150B02C079014B
:1006A0008A018EE1C82ED12CDC82CB82ED82FE82C3
:1006B0000F831887C801B7010E94CF03019718164E
:1006C000190684F4082E04C0EE0CFF1C001F111F35
:1006D0000A94D2F7ED82FE820F831887C81AD90ACE
:1006E000DC82CB82BA82CE0101960E941E0428963B
:1006F000E9E00C94DB1EACE0B0E0E1E8F3E00C9440
:10070000C61E69837A838B839C83CE010196BE01CA
:100710006B5F7F4F0E94F3048D81823061F18230E4
:1007200050F1843021F48E81882351F12EC02F8125
:10073000388537FD20C06E812F3131051CF06623CE
:10074000F9F023C08EE190E0821B930B29853A8556
:100750004B855C8504C056954795379527958A95B6
:10076000D2F76623B1F050954095309521953F4FD3
:100770004F4F5F4F0EC020E030E040E050E009C036
:100780002FEF3FEF4FEF5FE704C020E030E040E0A5
:1007900050E8B901CA012C96E2E00C94E21EEF92F7
:1007A000FF920F931F937B018C0180E0E81680E09D
:1007B000F80681E0080780E0180788F48FEFE81654
:1007C000F1040105110531F028F088E090E0A0E087
:1007D000B0E017C080E090E0A0E0B0E012C080E0A0
:1007E000E81680E0F80680E0080781E0180728F0A6
:1007F00088E190E0A0E0B0E004C080E190E0A0E0FB
:10080000B0E020E230E040E050E0281B390B4A0B1A
:100810005B0B04C016950795F794E7948A95D2F779
:10082000F701EC5BFE4F8081281B3109410951091A
:10083000C9011F910F91FF90EF900895DF92EF9201
:10084000FF920F931F93FC01E480F58006811781CE
:10085000D1808081823048F480E090E0A0E1B0E077
:10086000E82AF92A0A2B1B2BA5C0843009F49FC063
:10087000823021F4EE24FF24870105C0E114F10445
:100880000105110519F4E0E0F0E096C06281738182
:100890009FEF623879070CF05BC022E83FEF261B20
:1008A000370B2A3131052CF020E030E040E050E0F9
:1008B0002AC0B801A701022E04C076956795579506
:1008C00047950A94D2F781E090E0A0E0B0E004C040
:1008D000880F991FAA1FBB1F2A95D2F70197A1095C
:1008E000B1098E219F21A023B1230097A105B10555
:1008F00021F081E090E0A0E0B0E09A01AB01282B6C
:10090000392B4A2B5B2BDA01C9018F779070A070CD
:10091000B07080349105A105B10539F427FF09C0F5
:10092000205C3F4F4F4F5F4F04C0215C3F4F4F4F04
:100930005F4FE0E0F0E02030A0E03A07A0E04A0797
:10094000A0E45A0710F0E1E0F0E079018A0127C045
:100950006038710564F5FB01E158FF4FD801C7010C
:100960008F779070A070B07080349105A105B105AB
:1009700039F4E7FE0DC080E490E0A0E0B0E004C0F0
:100980008FE390E0A0E0B0E0E80EF91E0A1F1B1F05
:1009900017FF05C016950795F794E794319687E001
:1009A00016950795F794E7948A95D1F705C0EE243C
:1009B000FF248701EFEFF0E06E2F679566276795BC
:1009C000902F9F77D794DD24D7948E2F8695492F2B
:1009D000462B582F5D29B701CA011F910F91FF9037
:1009E000EF90DF900895FC01DB014081518122816D
:1009F000622F6F7770E0221F2227221F9381892F99
:100A0000880F822B282F30E0991F9927991F119664
:100A10009C93119721153105A9F5411551056105E3
:100A2000710511F482E037C082E89FEF13969C9322
:100A30008E9312979A01AB0167E0220F331F441F78
:100A4000551F6A95D1F783E08C930DC0220F331F99
:100A5000441F551F12968D919C91139701971396E1
:100A60009C938E931297203080E0380780E04807EF
:100A700080E4580758F314962D933D934D935C935F
:100A8000179708952F3F310579F4411551056105F8
:100A9000710519F484E08C93089564FF03C081E02C
:100AA0008C9312C01C9210C02F57304013963C9369
:100AB0002E93129783E08C9387E0440F551F661F97
:100AC000771F8A95D1F7706414964D935D936D935B
:100AD0007C93179708951F93DC01FB019C91923042
:100AE00008F447C08081823008F443C0943051F448
:100AF00011961C91843099F58181682F70E0611BFB
:100B000071093FC0843021F0923031F48230B9F164
:100B10008181882389F12DC011961C911197823013
:100B2000F1F081811817D9F412962D913C91139709
:100B3000828193818217930794F028173907BCF0BC
:100B400014968D919D910D90BC91A02D248135819D
:100B500046815781281739074A075B0718F4112384
:100B600041F00AC082179307A407B50740F4112388
:100B700019F061E070E005C06FEF7FEF02C060E048
:100B800070E0CB011F910895EF92FF920F931F9396
:100B9000FC010580F681E02DE680F7808701045F87
:100BA0001F4FC8010E942B088FE992E0B8010E94F4
:100BB000CD0720E0E0916E02F0916F02D7015696CA
:100BC0009C918689981708F021E0822F1F910F9140
:100BD000FF90EF900895FF920F931F93CF93DF93B1
:100BE00099E0F92E21C0F894E091A402F091A502B9
:100BF00006811781C8010C960E942B087894E801A1
:100C00002296CE010E942B08F801968980917002ED
:100C1000891710F4909370029F9DC0011124895888
:100C20009D4FBE010E94CD0780919F028823D9F677
:100C30000E942F0D2091710230917202821B930B42
:100C4000909374028093730289E0F82E53C001964A
:100C50009093760280937502215030403093740255
:100C600020937302892B09F03EC020919B023091A2
:100C70009C0280919D0290919E0290939C02809391
:100C80009B0230939E0220939D022DC00580F68129
:100C9000E02DC681D78120917502309176028A813C
:100CA0009B812817390730F1F8948E010E5F1F4F92
:100CB000C8010E942B088C899D89892B21F0CE01C7
:100CC0000C960E942B0878949E8980917002891757
:100CD00010F4909370029F9DC001112489589D4F7C
:100CE000B8010E94CD07E0919B02F0919C028081A7
:100CF000882361F62091730230917402809175020D
:100D0000909176022115310509F0A1CF90937202DE
:100D1000809371029091700229E006C0992319F422
:100D20001092700232C09150929FD0011124A958A4
:100D3000BD4F8C91882391F3909370021196ED91A1
:100D4000FC9112970280F381E02D1296FC93EE93B2
:100D50001197CD010396E817F90731F48281938149
:100D600012969C938E9311971196ED91FC91129788
:100D70000680F781E02DF0936F02E0936E022081F0
:100D80003181CF016789F9010995DF91CF911F91D9
:100D90000F91FF9008950F931F93CF93DF93EB0173
:100DA0000091750210917602080F191F80916E0252
:100DB00090916F0202960E942B08E0916E02F091D2
:100DC0006F02138302838091750290917602BF01B6
:100DD0006E5F7F4F0817190728F480919D0290914C
:100DE0009E0204C080919B0290919C020E94F60793
:100DF000209749F060916E0270916F02645F7F4F9F
:100E0000CE010E94F607DF91CF911F910F910895B7
:100E1000AF92BF92CF92DF92EF92FF920F931F9308
:100E2000CF93DF936C01B62EA42E8AE190E00E944E
:100E30009207EC01009711F48FEF59C080916E0278
:100E400090916F02892B21F5D0936F02C0936E02AF
:100E500087E792E00E94B90780E892E00E94B90714
:100E600029E8E22E22E0F22EC7010E94B90702E92A
:100E700012E0C8010E94B9078FE992E00E94B90709
:100E8000F0929C02E0929B0210939E0200939D02BE
:100E9000EB2CBB2011F0EE24E394198E188EEE8A11
:100EA000AF8AFE01C192D1928F01CF010E94C90782
:100EB000CE010C960E94C907D987C887DB8BCA8BE5
:100EC00084E090E08E1991099D878C879E8980919E
:100ED0007002891710F49093700289E0989FC00106
:100EE000112489589D4FB8010E94CD0781E0DF9100
:100EF000CF911F910F91FF90EF90DF90CF90BF9017
:100F0000AF90089508951092A9021092A802089532
:100F100020EB34E08091A8029091A902281B390BA4
:100F2000C90108950F931F93CF93DF938C010E9403
:100F3000290D8091A8029091A9029801280F391FCC
:100F400044E0203B340758F48217930740F4EC0147
:100F5000C655DD4F3093A9022093A80202C0C0E01D
:100F6000D0E00E94E30FCE01DF91CF911F910F914E
:100F70000895FC019C012D5F3F4F328321838FEF49
:100F80009FEF948383833683258330872783108262
:100F90000895FC01118610860895CF93DF93AC016C
:100FA000DB01EC0129813A81F90182819381139659
:100FB0009C938E93129789819A8115969C938E9318
:100FC00014970280F381E02D75836483E9017B83AC
:100FD0006A83FA017283618319965C934E93189722
:100FE00080818F5F8083DF91CF910895CF93DF93CE
:100FF0009C01EB01488159818FEF4F3F580721F445
:10100000F901A781B08510C0D901139604C01296CA
:101010000D90BC91A02D1296ED91FC9113978081BB
:1010200091814817590798F71296ED91FC91139703
:10103000FB83EA83D583C483BD83AC831396DC939F
:10104000CE93129739872887F90180818F5F80833B
:10105000DF91CF910895CF93DF93DC011296ED914C
:10106000FC91139714968D919C9115979583848389
:101070001496CD91DC911597FB83EA831896ED9138
:10108000FC911997818192818A179B0711F4D28371
:10109000C18319961C921E9218978081815080837B
:1010A000DF91CF910895FC0191E1908322E2229398
:1010B00083E3829362937293129280E882931292F6
:1010C00082E0829383E0829384E0829385E082933E
:1010D00086E0829387E0829388E0829389E082931E
:1010E00080E18293929382E1829383E1829384E10F
:1010F000829385E1829386E1829387E1829388E1FE
:10110000829389E1829380E2829381E282932293A7
:1011100083E282934293529386E2829387E28293A0
:1011200088E2829389E2829380E3829381E38293CF
:101130003197CF0108951BBC8CE78ABD8BE08EBD33
:1011400089B7806189BFA0915A07B0915B07CD91A3
:10115000CDBFDD91DEBFFF91EF91DF91CF91BF91C8
:10116000AF919F918F917F916F915F914F913F913F
:101170002F911F910F91FF90EF90DF90CF90BF9034
:10118000AF909F908F907F906F905F904F903F9027
:101190002F901F900F900FBE0F90089581E008953B
:1011A00008950F920FB6F8940F921F9211242F9268
:1011B0003F924F925F926F927F928F929F92AF92E7
:1011C000BF92CF92DF92EF92FF920F931F932F93D4
:1011D0003F934F935F936F937F938F939F93AF93BF
:1011E000BF93CF93DF93EF93FF93A0915A07B091F2
:1011F0005B070DB60D920EB60D920E948E0E0E94E8
:10120000430DA0915A07B0915B07CD91CDBFDD9101
:10121000DEBFFF91EF91DF91CF91BF91AF919F9191
:101220008F917F916F915F914F913F912F911F917E
:101230000F91FF90EF90DF90CF90BF90AF909F9075
:101240008F907F906F905F904F903F902F901F9066
:101250000F900FBE0F9008950E94D10818950F921D
:101260000FB6F8940F921F9211242F923F924F9233
:101270005F926F927F928F929F92AF92BF92CF9226
:10128000DF92EF92FF920F931F932F933F934F9311
:101290005F936F937F938F939F93AF93BF93CF93FE
:1012A000DF93EF93FF93A0915A07B0915B070DB6C0
:1012B0000D920EB60D920E94430DA0915A07B09167
:1012C0005B07CD91CDBFDD91DEBFFF91EF91DF9147
:1012D000CF91BF91AF919F918F917F916F915F91CE
:1012E0004F913F912F911F910F91FF90EF90DF90C1
:1012F000CF90BF90AF909F908F907F906F905F90B6
:101300004F903F902F901F900F900FBE0F90089519
:10131000FC010FB6F8940F92828D0F900FBE0895C6
:10132000FC01828D0895FC01828D90E0882309F4F0
:1013300091E0892F0895FC01928D20E0838D98170C
:1013400009F421E0822F08950F931F938C01FC0173
:10135000808191810E948207C8010E9482071F91AB
:101360000F9108950F931F93CF93DF93EC01FB012F
:101370008A018A8D882381F148815981411551055F
:10138000A9F08C8D2E813F81280F311D3F832E8344
:101390008A819B812817390710F05F834E834C8D1B
:1013A0006E817F81CF0150E00E94ED1E8A8D8150B9
:1013B0008A8F8D8D8F3F69F48885882361F0CE01F7
:1013C00008960E944F0E882331F081E0F801808357
:1013D00003C08F5F8D8F81E0DF91CF911F910F91BF
:1013E00008950F931F93CF93DF93EC010FB6F894FA
:1013F0000F928C010F5E1F4F0DC08989882369F001
:10140000C8010E944F0E882311F00E94CE0D8E8DD0
:1014100081508E8F8E8D181684F38FEF8E8F0F90E4
:101420000FBE0FB6F8940F928E01085F1F4F0DC0CC
:101430008885882369F0C8010E944F0E882311F027
:101440000E94CE0D8D8D81508D8F8D8D181684F359
:101450008FEF8D8F0F900FBEDF91CF911F910F9166
:1014600008957F928F929F92AF92BF92CF92DF9218
:10147000EF92FF920F931F93DF93CF9300D000D092
:101480000F92CDB7DEB78C01962E872E5D834C83ED
:10149000722E91E1C92ED12CC00ED11E20E07E010A
:1014A0000894E11CF11C84E0A82EB12CAC0EBD1EEA
:1014B00001C021E00FB6F8940F92F801828D8823C5
:1014C00009F448C0E680F7804081518141155105FB
:1014D000B1F0848D9701280F311D378326838281D7
:1014E00093812817390710F057834683F801448DFC
:1014F00066817781892D982D50E00E94ED1E77201E
:10150000C1F4F801828D8150828F80819181892B75
:1015100029F40E94D20DF80193838283F80180851B
:101520008823A1F0C80108960E944F0E813071F403
:101530000BC0F801F782E6828189882339F0C60161
:101540000E944F0E882311F00E942F090F900FBEAA
:1015500081E059C08C819D81892B19F40F900FBEB9
:1015600051C0222319F4C7010E94850D0F900FBEB0
:101570000E94290D0FB6F8940F92F801858D8F3FC8
:1015800009F4158EF801868D8F3F09F4168E0F90A1
:101590000FBEC701B5010E94900D882371F50FB6EB
:1015A000F8940F92F801828D0F900FBE8823F9F402
:1015B000F80180819181892B51F40FB6F8940F9234
:1015C000F801828193810E94050E0F900FBE6C81FD
:1015D0007D81C6010E94B70FC8010E94F1090E94D7
:1015E000E30F882309F065CF0E942F0962CFC8015D
:1015F0000E94F1090E94E30F5CCFC8010E94F1092B
:101600000E94E30F80E00F900F900F900F900F90CB
:10161000CF91DF911F910F91FF90EF90DF90CF90CE
:10162000BF90AF909F908F907F900895EF92FF9220
:101630000F931F93CF93DF93EC017B010A811B81F2
:101640000E94D20D0817190739F48E819F810196E7
:101650009F838E8321E00FC0CE0160E070E0A70180
:1016600020E00E94310A282F813029F48E819F8149
:1016700001969F838E83822FDF91CF911F910F91CF
:10168000FF90EF900895CF93DF93EC01842F4C8D62
:10169000442359F488819981892BD9F58A819B81CA
:1016A0000E94D80D1B821A8234C08823B1F48C8129
:1016B0009D8150E00E94ED1E8C8D2C813D81280F74
:1016C000311D3D832C838A819B812817390708F1BE
:1016D000888199819D838C831CC08E819F8150E07D
:1016E0000E94ED1E8C8D90E044275527481B590B16
:1016F0008E819F81840F951F9F838E8328813981DE
:101700008217930730F48A819B81840F951F9F83F2
:101710008E838A8D8F5F8A8FDF91CF9108950F938B
:101720001F93CF93DF93EC018A019A8D8B8D9817CD
:1017300010F080E017C0CE01422F0E94430B8E8D27
:101740008F3F69F48989882361F0CE0141960E9418
:101750004F0E882331F081E0F801808303C08F5F52
:101760008E8F81E0DF91CF911F910F9108957F922D
:101770008F929F92AF92BF92CF92DF92EF92FF92A1
:101780000F931F93DF93CF9300D000D00F92CDB76C
:10179000DEB78C016B015D834C83722E48E0E42E32
:1017A000F12CE80EF91E20E05E010894A11CB11C8A
:1017B00034E0832E912C8C0E9D1E01C021E00FB6CB
:1017C000F8940F92F801928D838D9817A8F4C801B0
:1017D000B601472D0E94430BF8018189882341F00F
:1017E000C80141960E944F0E813011F40E942F09CA
:1017F0000F900FBE81E04CC08C819D81892B19F424
:101800000F900FBE44C0222319F4C5010E94850D1C
:101810000F900FBE0E94290D0FB6F8940F92F80199
:10182000858D8F3F09F4158EF801868D8F3F09F461
:10183000168E0F900FBEC501B4010E94900D882333
:1018400009F50FB6F8940F92F801928D0F900FBE24
:10185000F801838D981781F46C817D81C7010E9406
:10186000B70FC8010E94F1090E94E30F882309F015
:10187000A5CF0E942F09A2CFC8010E94F1090E94A2
:10188000E30F9CCFC8010E94F1090E94E30F80E0A2
:101890000F900F900F900F900F90CF91DF911F91AD
:1018A0000F91FF90EF90DF90CF90BF90AF909F90FF
:1018B0008F907F9008950F931F93CF93DF93EC0148
:1018C0000A811B810E94D20D0817190711F080E0D0
:1018D00010C08E819F8101979F838E83892B41F455
:1018E000CE0160E070E040E050E020E00E94B70BE5
:1018F00081E0DF91CF911F910F910895CF93DF93F6
:101900008FE190E00E949207EC010097F9F01B82B2
:101910001A82198218821D821C821F821E821A8ED0
:1019200081E08B8F1C8E8FEF8D8F8E8FCE0108966E
:101930000E94B907CE0141960E94B907CE0160E02E
:1019400070E040E050E020E00E94B70BCE01DF9154
:10195000CF910895AF92BF92CF92DF92EF92FF9214
:101960000F931F93CF93DF93B82EA62E882309F4ED
:1019700042C08FE190E00E949207EC010097D9F1FC
:10198000EB2CFF24CA2CDD24CE9C8001CF9C100DB3
:10199000DE9C100D1124C80101960E9492079C0143
:1019A00099838883009721F1080F191F1B830A83ED
:1019B0001A8E9D838C830894E108F108EC9CC00189
:1019C000ED9C900DFC9C900D1124280F391F3F8336
:1019D0002E83BB8EAC8E8FEF8D8F8E8FCE010896AF
:1019E0000E94B907CE0141960E94B9079E0105C029
:1019F000CE010E94820720E030E0C901DF91CF9143
:101A00001F910F91FF90EF90DF90CF90BF90AF901C
:101A100008951F93162F60E00E94AA0CFC01009706
:101A200009F0128FCF011F910895FC0182859385E3
:101A3000845B974059F48489958927E0823A92071C
:101A400029F020E0892B19F421E001C020E0822F49
:101A50000895809161078F5F8093610708950FB6A5
:101A6000F8940F9220915F07309160070F900FBE9E
:101A7000C901089520915F0730916007C901089559
:101A800080916307089580916107882351F081E078
:101A900080935D07089580915C07815080935C0777
:101AA00001C099E0E0915C07E99FF0011124E85939
:101AB000F84F8081882379F390915C0789E0989FA3
:101AC000D0011124A859B84F1196ED91FC911297AD
:101AD0000280F381E02D1296FC93EE931197CD01D5
:101AE0000396E817F90731F48281938112969C934B
:101AF0008E9311971196ED91FC91129786819781A3
:101B000090935B0780935A070895FC0180915E07CC
:101B1000808380915F07909160079283818308950D
:101B2000FC01DB010FB6F8940F924D915C91119777
:101B30008FEF4F3F580761F190915E0780819817B2
:101B400049F020915F0730916007818192812817C9
:101B5000390700F580915F079091600721813281FC
:101B6000821B930B84179507A8F480915F079091CF
:101B70006007281B390B240F351F2D933C93809150
:101B80005E07808380915F079091600792838183D5
:101B900080E001C081E00F900FBE089581E0809346
:101BA0005D07089520915A0730915B07C901089598
:101BB0000F931F93CF93DF93EC01009709F19E8958
:101BC00089A19817E9F08E010E5F1F4FC8010E948E
:101BD0002B0829A12E8B84E090E0821B91099D8720
:101BE0008C8780915C07821710F420935C0789E052
:101BF000289FC00111248859984FB8010E94CD0731
:101C0000DF91CF911F910F9108950F931F93CF9361
:101C1000DF93EC01E0915A07F0915B073E898689DA
:101C20003817C0F5E0915A07F0915B07268984E0E8
:101C300090E0821B91099D878C8789E0389FC001C5
:101C400011248859984F2A853B8528173907E1F4D4
:101C50008E010E5F1F4FC8010E942B08E0915A07AA
:101C6000F0915B0796899E8B80915C07891710F431
:101C700090935C0789E0989FC00111248859984F80
:101C8000B8010E94CD0706C0E0915A07F0915B07AA
:101C900086898E8BDF91CF911F910F9108950F93BD
:101CA0001F93CF93DF93FC010580F681E02D068121
:101CB0001781E8012C96CE010E942B0880916107C4
:101CC0008823A9F4E8012296CE010E942B08D801AE
:101CD00056969C9180915C07891710F490935C074D
:101CE00089E0989FC00111248859984F02C082EA68
:101CF00097E0BE010E94CD07E0915A07F0915B0783
:101D000020E0D80156969C918689981708F021E02A
:101D1000822FDF91CF911F910F910895FF920F9322
:101D20001F93CF93DF9380916107882309F08FC0C1
:101D300080915F0790916007019690936007809370
:101D40005F0780915F0790916007892B79F520915B
:101D50009E0730919F078091A0079091A1079093D3
:101D60009F0780939E073093A1072093A00780913F
:101D70005E078F5F80935E07E0919E07F0919F075B
:101D80008081882319F48FEF9FEF0CC0E0919E07AC
:101D9000F0919F070580F681E02D0680F781E02D08
:101DA00082819381909345028093440220915F0742
:101DB00030916007809144029091450228173907BD
:101DC00008F44AC089E0F82EE0919E07F0919F0741
:101DD0008081882339F48FEF9FEF909345028093A1
:101DE00044023AC0E0919E07F0919F070580F6817A
:101DF000E02DC681D7812A813B8180915F07909138
:101E000060078217930728F4309345022093440219
:101E100023C08E010E5F1F4FC8010E942B088C89C2
:101E20009D89892B21F0CE010C960E942B089E895A
:101E300080915C07891710F490935C079F9DC00107
:101E400011248859984FB8010E94CD07BDCF8091C9
:101E500062078F5F80936207DF91CF911F910F918F
:101E6000FF900895DF92EF92FF920F931F93CF930D
:101E7000DF93EC018A859B85845B974091F58C8983
:101E80009D8927E0823A920761F1892B51F533C091
:101E9000DE88E0915A07F0915B07068992E0E92E0F
:101EA000F12CEC0EFD1EC7010E942B086E8980915B
:101EB0005C07861710F460935C0710E0D01608F0FA
:101EC00011E089E0689FC00111248859984FB7013B
:101ED0000E94CD0707C02C9682EA97E0BE010E94BF
:101EE000CD0710E0812FDF91CF911F910F91FF90CF
:101EF000EF90DF90089580916107882349F2EBCF3E
:101F0000CF93DF93EC01E0915A07F0915B07938345
:101F1000828380915F0790916007C817D90768F4A2
:101F20008091A0079091A10760915A0770915B077B
:101F30006E5F7F4F0E94F60717C080919E079091B9
:101F40009F0760915A0770915B076E5F7F4F0E94F9
:101F5000F6078091440290914502C817D90720F4F2
:101F6000D0934502C0934402DF91CF910895CF935F
:101F7000DF93EB0160915A0770915B07645F7F4FBD
:101F80000E94F60780915A0790915B0702960E9483
:101F90002B088FEFCF3FD80759F460915A07709103
:101FA0005B076E5F7F4F84EB97E00E94CD0708C010
:101FB00080915F07909160078C0F9D1F0E94800F9A
:101FC000DF91CF910895CF92DF92FF920F931F93ED
:101FD000DF93CF930F92CDB7DEB70FB6F8940F9281
:101FE0008091610781508093610780916107882308
:101FF00009F058C080916307882309F453C01982FF
:1020000029E0F22E2DC0E091A707F091A807C68025
:10201000D780C6010C960E942B0886010E5F1F4FC9
:10202000C8010E942B08D60156969C9180915C07AE
:10203000891710F490935C079F9DC0011124885963
:10204000984FB8010E94CD07E0915A07F0915B07C5
:10205000D60156969C918689981710F0B1E0B98305
:102060008091A207882379F680916207882341F442
:102070000CC00E948E0E809162078150809362078F
:10208000809162078823A9F707C0E981E13021F038
:1020900080915D07813031F410925D070E942F0915
:1020A00081E001C080E00F900FBE0F90CF91DF91D3
:1020B0001F910F91FF90DF90CF9008950F931F9382
:1020C000CF93DF93EC01009709F43CC080915A074D
:1020D00090915B07C817D907A9F10FB6F8940F9232
:1020E0008A859B85845B9740F1F48C899D8927E0E4
:1020F000823A9207C1F0892BB1F418C090935C0723
:1021000089E0989FC00111248859984FB8010E9416
:10211000CD07E0915A07F0915B079E898689981751
:1021200010F00E942F090F900FBE0CC08E010E5FA1
:102130001F4FC8010E942B089E8980915C07891758
:10214000E8F2DECFDF91CF911F910F910895EF92CA
:10215000FF920F931F93CF93DF938C010FB6F894E8
:102160000F9280915A0790915B070817190719F48D
:1021700000E010E003C00115110529F4C0915A07D1
:10218000D0915B0701C0E80132E0E32EF12CEC0EA8
:10219000FD1EC7010E942B088C899D89892B21F087
:1021A000CE010C960E942B0884EB97E0B7010E94A9
:1021B000CD070F900FBE012BA1F4809164078823F7
:1021C00019F00E942F090DC09091B4078091630708
:1021D000981729F410925B0710925A0702C00E94C8
:1021E000430DDF91CF911F910F91FF90EF900895D4
:1021F0000F931F93CF93DF93EC010097C9F0809169
:1022000061078F5F8093610700915F0710916007FE
:1022100080915A0790915B0702960E942B08CE018D
:10222000800F911F0E94800F0E94E30F882311F4FA
:102230000E942F09DF91CF911F910F910895CF93A5
:10224000DF93FC01EB01809161078F5F8093610751
:1022500020813181C20FD31F80915F079091600769
:102260008217930728F4C217D30728F020E00CC088
:10227000C217D30740F080915F079091600720E07C
:102280008C179D0708F421E0D183C083222351F0ED
:1022900080915A0790915B0702960E942B08CE010D
:1022A0000E94800F0E94E30F882311F40E942F09DF
:1022B000DF91CF910895EF92FF920F931F93CF93E9
:1022C000DF938C010FB6F8940F9280915A0790918A
:1022D0005B070817190719F400E010E003C00115A7
:1022E000110529F4C0915A07D0915B0701C0E8019C
:1022F00042E0E42EF12CEC0EFD1EC7010E942B08DB
:102300008C899D89892B21F0CE010C960E942B0887
:102310008BEA97E0B7010E94CD07809165078F5F38
:1023200080936507809166078F5F809366070F90A3
:102330000FBE80916407882321F0012B11F40E94C5
:102340002F09DF91CF911F910F91FF90EF9008958A
:10235000F894109264070E94D00808950F931F9379
:10236000809165078823E1F3809161078F5F8093F7
:1023700061071091AB070E94E30F112389F30FB699
:10238000F8940F92E091B007F091B10706811781A0
:10239000C80102960E942B088091630781508093A8
:1023A0006307809165078150809365070F900FBE8A
:1023B000F8018789908D0E948207C8010E948207D8
:1023C000CFCF2F923F925F926F927F928F929F9288
:1023D000AF92BF92CF92DF92EF92FF920F931F9333
:1023E000DF93CF9300D000D0CDB7DEB79A83898337
:1023F0004B015A011901502E370182E290E00E94F0
:1024000092078B839C838B819C81892B89F0C114DB
:10241000D10421F4C5010E9492076C01EB81FC817B
:10242000D08EC78AC114D10429F4CF010E9482073B
:102430008FEFDBC0C60165EA70E0A5010E94F61EC1
:102440000894A108B108EB81FC81E788F08CEA0CC4
:10245000FB1CCF014996B40148E050E00E94FD1EEC
:10246000EB81FC8110A2052DF3E0F51508F403E0E3
:10247000EB81FC81068B01A362E0C62ED12CCE0E2F
:10248000DF1EC6010E94C9078B819C810C960E94A9
:10249000C9078B819C81FC019187808784E090E053
:1024A000801B910995878487F38BE28BC701698133
:1024B0007A81A1010E945308EB81FC819183808382
:1024C0006114710421F0CF01F301918380830FB671
:1024D000F8940F92809163078F5F809363078091D8
:1024E0005A0790915B07892BE1F5EB81FC81F09312
:1024F0005B07E0935A0780916307813009F042C07F
:1025000088E697E00E94B90781E797E00E94B90743
:102510008AE797E00E94B90783E897E00E94B9072D
:102520005CE8E52E57E0F52EC7010E94B90705E9E2
:1025300017E0C8010E94B90782EA97E00E94B90734
:102540008BEA97E00E94B90784EB97E00E94B907F5
:10255000F0929F07E0929E071093A1070093A007B7
:1025600011C080916407882369F4E0915A07F091C3
:102570005B078689581630F08B819C8190935B07AE
:1025800080935A07EB81FC819689809167078917B0
:1025900010F490936707809166078F5F80936607BA
:1025A000EB81FC81968980915C07891710F49093E8
:1025B0005C07EB81FC81868929E0829FC0011124A0
:1025C0008859984FB6010E94CD070F900FBE809199
:1025D0006407882349F0E0915A07F0915B078689E8
:1025E000851510F40E942F0981E00F900F900F9035
:1025F0000F90CF91DF911F910F91FF90EF90DF909F
:10260000CF90BF90AF909F908F907F906F905F9092
:102610003F902F900895AF92BF92CF92DF92EF92AA
:10262000FF920F938EEA91E160E670E044E650E09D
:1026300020E030E000E0EE24FF24CC24DD24AA24B6
:10264000BB240E94E111813049F4F894809364071F
:102650001092600710925F070E949B080F91FF90F5
:10266000EF90DF90CF90BF90AF9008958898899AAF
:10267000549A539A80B5806880BD80B58F7B80BDA9
:1026800080B58F7D80BD80B58F7E80BD80B5877F12
:1026900080BD80B5846080BD80B5826080BD80B51E
:1026A0008E7F80BD83E389B9579A08955D9BFECFE5
:1026B0008CB908955F9BFECF8CB108959093C007AD
:1026C0008093BF077093BE076093BD0708951F9264
:1026D0000F920FB60F9211242F933F934F935F9356
:1026E0006F937F938F939F93AF93BF93EF93FF93DA
:1026F000E091BD07F091BE078CB18083E091BF07E8
:10270000F091C0070995FF91EF91BF91AF919F9113
:102710008F917F916F915F914F913F912F910F908A
:102720000FBE0F901F901895843010F082E008952E
:10273000813049F0813028F0823039F0833031F433
:1027400007C06ABB03C067BB01C064BB81E00895DA
:1027500061BB81E00895843008F06DC0683008F0F6
:102760006AC0423008F067C08130F9F0813030F043
:10277000823091F1833009F05CC045C02AB381E01A
:1027800090E0062E02C0880F991F0A94E2F7809508
:1027900082238ABB2AB3842F90E002C0880F991F3E
:1027A0006A95E2F7282B2ABB44C027B381E090E06A
:1027B000062E02C0880F991F0A94E2F780958223A3
:1027C00087BB27B3842F90E002C0880F991F6A95BA
:1027D000E2F7282B27BB2DC024B381E090E0062E22
:1027E00002C0880F991F0A94E2F78095822384BB68
:1027F00024B3842F90E002C0880F991F6A95E2F7F6
:10280000282B24BB16C021B381E090E0062E02C025
:10281000880F991F0A94E2F78095822381BB21B328
:10282000842F90E002C0880F991F6A95E2F7282B49
:1028300021BB81E0089582E00895843010F082E0A9
:102840000895813049F0813028F0823039F08330AA
:1028500031F407C06BBB03C068BB01C065BB81E03E
:10286000089562BB81E00895843008F06DC068303F
:1028700008F06AC0423008F067C08130F9F081305A
:1028800030F0823091F1833009F05CC045C02BB349
:1028900081E090E0062E02C0880F991F0A94E2F7AB
:1028A000809582238BBB2BB3842F90E002C0880FCE
:1028B000991F6A95E2F7282B2BBB44C028B381E00F
:1028C00090E0062E02C0880F991F0A94E2F78095C7
:1028D000822388BB28B3842F90E002C0880F991F01
:1028E0006A95E2F7282B28BB2DC025B381E090E044
:1028F000062E02C0880F991F0A94E2F78095822362
:1029000085BB25B3842F90E002C0880F991F6A957C
:10291000E2F7282B25BB16C022B381E090E0062EFB
:1029200002C0880F991F0A94E2F78095822382BB28
:1029300022B3842F90E002C0880F991F6A95E2F7B6
:10294000282B22BB81E0089582E00895FB016115E8
:10295000710511F483E00895843010F082E0089549
:10296000813049F0813028F0823039F0833039F4F9
:1029700008C089B303C086B301C083B3808381E0FC
:10298000089580B3808381E00895FA0141155105CF
:1029900011F483E008958430E0F46830D0F481309D
:1029A00049F0813028F0823039F0833081F406C05C
:1029B00089B305C086B303C083B301C080B390E080
:1029C00002C0959587956A95E2F78170808381E0D2
:1029D000089582E00895843010F082E008958130F7
:1029E00059F0813028F0823059F0833061F40DC005
:1029F0008BB380958BBB07C088B3809588BB03C021
:102A000085B3809585BB81E0089582B3809582BBB4
:102A100081E008958430C0F56830B0F5813091F0E0
:102A2000813028F08230C9F0833061F521C02BB3AA
:102A300081E090E002C0880F991F6A95E2F728278D
:102A40002BBB20C028B381E090E002C0880F991F03
:102A50006A95E2F7282728BB15C025B381E090E0EE
:102A600002C0880F991F6A95E2F7282725BB0AC084
:102A700022B381E090E002C0880F991F6A95E2F7C7
:102A8000282722BB81E0089582E00895379A369A7C
:102A900080E487B986B1876086B9339A359A0895FC
:102AA000369A0895349BFECF24B135B1C9010895FB
:102AB000FC0141155105B1F02115310599F05093F4
:102AC000C7074093C6073093C9072093C80787E319
:102AD0008093C507F093C207E093C1077093C407C2
:102AE0006093C30708951F920F920FB60F9211249F
:102AF0002F933F934F935F936F937F938F939F9306
:102B0000AF93BF93EF93FF9324B135B1B901660F33
:102B1000771F660F771F620F731F80E090E028EE2B
:102B200033E040E050E00E945A1E2FEF33E040E0D7
:102B300050E00E94791E2B5F3F4F4F4F5F4FCA01FD
:102B4000B9012AE030E040E050E00E94791EE091B7
:102B5000C307F091C4072083E091C107F091C20739
:102B60008081821758F48091C507873399F4E091EA
:102B7000C607F091C707099582E40AC08091C5078E
:102B8000823441F4E091C807F091C907099587E3C1
:102B90008093C507369AFF91EF91BF91AF919F91B6
:102BA0008F917F916F915F914F913F912F910F90F6
:102BB0000FBE0F901F901895982FAB0161157105EE
:102BC00011F483E0089580914602981710F081E097
:102BD0000895892F90E0880F991FE0914D02F091A0
:102BE0004E02E80FF91F808161810E94C51481E0C7
:102BF0000895982F80914602981770F4892F90E0DD
:102C0000880F991FE0914D02F0914E02E80FF91FD5
:102C1000808161810E940A1581E00895982F80913A
:102C20004602981778F4892F90E0880F991FE09159
:102C30004D02F0914E02E80FF91F8081618140E062
:102C40000E94341481E00895982F809146029817CD
:102C500078F4892F90E0880F991FE0914D02F09150
:102C60004E02E80FF91F8081618141E00E94341417
:102C700081E008951F9380914D0290914E02892B1F
:102C800011F483E017C010E010C0812F90E0880F8E
:102C9000991FE0914D02F0914E02E80FF91F8081DB
:102CA000618141E00E9434141F5F80914602181731
:102CB00060F381E01F9108951F9380914D029091E0
:102CC0004E02892B11F483E017C010E010C0812F51
:102CD00090E0880F991FE0914D02F0914E02E80FAD
:102CE000F91F8081618140E00E9434141F5F809150
:102CF0004602181760F381E01F910895FF920F9329
:102D00001F93FF241BC00F2D10E0000F111FE09137
:102D10004D02F0914E02E00FF11F8081618141E090
:102D20000E94AB13E0914D02F0914E02E00FF11FB3
:102D30008081618140E00E943414F39480914602C6
:102D4000F81608F381E01F910F91FF900895FF920C
:102D50000F931F93F82E81E063E040E00E9434144B
:102D60004F2D441F4427441F80E067E00E94341425
:102D70004F2D429546954695417080E066E00E9451
:102D800034144F2D42954695417080E065E00E94D5
:102D900034144F2D4295417080E064E00E94341459
:102DA00081E063E041E00E94341400E21EE4C801C7
:102DB0000197F1F781E063E040E00E943414C8011C
:102DC0000197F1F74F2D469546954695417080E065
:102DD00067E00E9434144F2D46954695417080E07F
:102DE00066E00E9434144F2D4695417080E065E006
:102DF0000E94341481E0F82280E064E04F2D0E94AC
:102E0000341481E063E041E00E94341400E117E2F1
:102E1000C8010197F1F781E063E040E00E943414BB
:102E2000C8010197F1F781E01F910F91FF9008957C
:102E30001F93182F81E061E041E00E94341481E08B
:102E400062E040E00E94341481E063E040E00E94D0
:102E50003414812F0E94A71681E01F9108955F927C
:102E60006F927F928F929F92AF92BF92CF92DF929A
:102E7000EF92FF920F931F935B016C016115710537
:102E80008105910521F480E30E94181753C097FF34
:102E90000BC08DE20E941817D094C094B094A094F7
:102EA000A11CB11CC11CD11C6624772443015524EC
:102EB0005394C401B3012AE030E040E050E00E94A6
:102EC0005A1E7B018C01C601B5010E949B1E3B016D
:102ED0004C016E0C7F1C801E911EC601B5012AE0BC
:102EE00030E040E050E00E949B1EC901DA015C0125
:102EF0006D01A114B104C104D104D1F619C0C401FB
:102F0000B3012AE030E040E050E00E94791E862FB5
:102F1000805D0E941817C401B3012AE030E040E050
:102F200050E00E94791EC901DA013C014D015A941A
:102F3000552029F781E01F910F91FF90EF90DF90CE
:102F4000CF90BF90AF909F908F907F906F905F9049
:102F50000895AF92BF92CF92DF92EF92FF920F93BC
:102F60001F935B016C0120E030E040E050E00E94E4
:102F7000ED02882321F480E30E94181745C0C601A2
:102F8000B5010E947B037B018C010E942F178EE20A
:102F90000E941817C801B7010E941D039B01AC01D4
:102FA000C601B5010E94950120E034E244E759E4EE
:102FB0000E94F3010E947B03E62ED72EC82EB92E65
:102FC0000EC06E2D7D2D8C2D9B2D2AE030E040E033
:102FD00050E00E949B1EE22ED32EC42EB52E6E2DE5
:102FE0007D2D8C2D9B2D2AE030E040E050E00E94AA
:102FF0009B1E611571058105910519F36E2D7D2DBF
:103000008C2D9B2D0E942F1781E01F910F91FF9017
:10301000EF90DF90CF90BF90AF9008951F93CF9324
:10302000DF93EC01009711F483E00CC010E003C0C3
:103030001F5F0E941817FE01E10FF11D8081882398
:10304000B9F781E0DF91CF911F9108951F93182F59
:1030500081E061E040E00E94341481E062E040E001
:103060000E94341481E063E040E00E943414812F18
:103070000E94A71681E01F9108950F931F93CF938D
:10308000DF938B016115710511F483E013C0880F84
:10309000880F880F805C0E942618C0E0D0E0F801FD
:1030A000EC0FFD1F80810E9418172196C830D105B2
:1030B000B1F780E0DF91CF911F910F910895853096
:1030C000E8F46531D8F4823069F0833018F4813047
:1030D000A9F405C0833049F0843081F409C0862FFB
:1030E000815808C0862F815405C0862F8D5602C096
:1030F000862F8D520E94261881E0089582E008955F
:10310000FF920F931F93F82E062F142F81E065E096
:103110000E945F181A3018F480E30E941817612F7C
:1031200070E080E090E00E942F178AE30E94181759
:103130000A3018F480E30E941817602F70E080E0D6
:1031400090E00E942F178AE30E94181789E08F15DC
:1031500018F080E30E9418176F2D70E080E090E077
:103160000E942F1780EC0E94261881E01F910F917A
:10317000FF9008950F931F938EE591E028EC30E0C7
:10318000F9013197F1F70197D9F781E061E041E06A
:103190000E94AB1381E062E041E00E94AB1381E04A
:1031A00063E041E00E94AB1380E067E041E00E94F1
:1031B000AB1380E066E041E00E94AB1380E065E085
:1031C00041E00E94AB1380E064E041E00E94AB1359
:1031D00081E061E040E00E94341480E067E040E07C
:1031E0000E94341480E066E040E00E94341480E0E5
:1031F00065E041E00E94341480E064E040E00E9419
:10320000341481E063E041E00E94341400E117E2ED
:10321000C8010197F1F781E063E040E00E943414B7
:10322000C8010197F1F788E20E94A71600ED17E0A8
:10323000C8010197F1F78CE00E94A716C801019719
:10324000F1F781E00E94A71680EA9FE00197F1F76D
:1032500086E00E94A71680E01F910F9108953F928B
:103260004F925F926F927F928F929F92AF92BF9296
:10327000CF92DF92EF92FF920F931F93DF93CF9342
:10328000CDB7DEB7A1970FB6F894DEBF0FBECDBFA6
:103290004C01009711F483E093C081E08A838B8313
:1032A0008C838D8334E03E8325E02F8396E09887DE
:1032B00087E0898782E08A878B878C878D8783E088
:1032C0008E873F87288B998B8FEF89834424EE2448
:1032D000FF243E010894611C711CEAE0F0E0EC0F51
:1032E000FD1FEE0DFF1D3080EEE0F0E0EC0FFD1F46
:1032F000EE0DFF1D5080832D652D40E00E9434149B
:1033000082E1C82ED12CCC0EDD1ECE0CDF1C00E0DD
:1033100010E0E2E0F0E0EC0FFD1FE00FF11FA080F5
:10332000E6E0F0E0EC0FFD1FE00FF11FB0808A2D0A
:103330006B2DA3010E94C5148981882321F580E2A9
:103340009EE40197F1F78A2D6B2DA3010E94C5140D
:103350008981882331F017C08A2D6B2DA3010E942B
:10336000C51489818823C1F3DE015296EDE5F2E0B0
:1033700080E101900D928150E1F7F6018081F40126
:103380008083442443940F5F1F4F84E090E0C80E75
:10339000D91E0430110509F0BCCF832D652D41E005
:1033A0000E9434140894E11CF11C94E0E916F10425
:1033B00009F093CF442019F48FEFF401808380E06B
:1033C000A1960FB6F894DEBF0FBECDBFCF91DF91AF
:1033D0001F910F91FF90EF90DF90CF90BF90AF9033
:1033E0009F908F907F906F905F904F903F90089547
:1033F00082E063E041E00E94AB1382E064E041E0E0
:103400000E94AB1382E065E041E00E94AB1382E0D2
:1034100066E041E00E94AB1382E063E041E00E947D
:10342000341482E064E041E00E94341482E065E0FC
:1034300041E00E94341482E066E041E00E943414CE
:1034400081E064E040E00E94AB1381E065E040E091
:103450000E94AB1381E066E040E00E94AB1381E084
:1034600067E040E00E94AB1381E064E041E00E942D
:10347000341481E065E041E00E94341481E066E0AC
:1034800041E00E94341481E067E041E00E9434147E
:1034900081E00895CF93DF93C82FD0E0CC0FDD1FDC
:1034A000E0915602F0915702EC0FFD1F808161817F
:1034B00041E00E94341480E197E228EC30E0F90109
:1034C0003197F1F70197D9F7E0915602F091570241
:1034D000EC0FFD1F8081618140E00E94341481E087
:1034E000DF91CF910895CF93DF93C82FD0E0CC0F19
:1034F000DD1FE0915602F0915702EC0FFD1F808115
:10350000618141E00E94341488EE93E028EC30E0C1
:10351000F9013197F1F70197D9F7E0915602F0914F
:103520005702EC0FFD1F8081618140E00E9434143E
:1035300081E0DF91CF91089590E0880F991FE0918D
:103540005602F0915702E80FF91F8081618140E037
:103550000E94341481E0089590E0880F991FE09153
:103560005602F0915702E80FF91F8081618141E016
:103570000E94341481E00895CF93DF93C82FD0E0E8
:10358000CC0FDD1FE0915602F0915702EC0FFD1FAA
:103590008081618141E00E94341480ED97E028EC45
:1035A00030E0F9013197F1F70197D9F7E091560230
:1035B000F0915702EC0FFD1F808161810E940A1576
:1035C00080ED97E028EC30E0F9013197F1F70197B1
:1035D000D9F7E0915602F0915702EC0FFD1F808160
:1035E00061810E940A1580ED97E028EC30E0F90136
:1035F0003197F1F70197D9F7E0915602F091570210
:10360000EC0FFD1F808161810E940A1580ED97E01B
:1036100028EC30E0F9013197F1F70197D9F7E09103
:103620005602F0915702EC0FFD1F808161810E94CC
:103630000A1580ED97E028EC30E0F9013197F1F7B9
:103640000197D9F7E0915602F0915702EC0FFD1F58
:103650008081618140E00E94341481E0DF91CF914C
:103660000895CF93DF93C82FD0E0CC0FDD1FE091FA
:103670005602F0915702EC0FFD1F8081618141E0FD
:103680000E94341480ED97E028EC30E0F901319786
:10369000F1F70197D9F7E0915602F0915702EC0F3C
:1036A000FD1F808161810E940A1580ED97E028EC62
:1036B00030E0F9013197F1F70197D9F7E09156021F
:1036C000F0915702EC0FFD1F808161810E940A1565
:1036D00080ED97E028EC30E0F9013197F1F70197A0
:1036E000D9F7E0915602F0915702EC0FFD1F80814F
:1036F000618140E00E94341481E0DF91CF91089510
:1037000090E0880F991FE0915602F0915702E80F60
:10371000F91F808161810E940A1581E00895FF925E
:103720000F931F938091560290915702892B11F4A9
:1037300083E022C0FF241BC00F2D10E0000F111FDB
:10374000E0915602F0915702E00FF11F80816181F4
:1037500041E00E94AB13E0915602F0915702E00F56
:10376000F11F8081618140E00E943414F3948091C4
:103770004F02F81608F381E01F910F91FF90089512
:1037800040ED5BE127EC3BE10E945815089580E095
:1037900061E040E00E94341487E38093CA070895F3
:1037A00080E061E041E00E94341482E48093CA0723
:1037B000089580E061E041E00E94AB130E9446154D
:1037C0000895EF92FF920F931F9388E5E82EFF2450
:1037D000FA948091D3079091D4070E94A71080910A
:1037E000D1079091D2070E94A710E0925C0281E07D
:1037F0000E94261881E061E00E945F1885E690E053
:103800000E940E1884E061E00E945F1884E790E057
:103810000E940E1882E061E00E945F1882E00E9420
:103820000E1601E010E088E592E00E942F198091C9
:1038300058028F3FC1F3E0915A02F0915B02E10F11
:10384000F11DE081EE2331F0013021F4E81731F46D
:103850001F5F05C08D3341F0013009F400E08AE2BA
:103860000E9418171F30F8F2F0925802013009F543
:1038700081E00E94261881E890E00E940E1888EEF0
:1038800093E00E94F8108091D3079091D4070E9492
:103890005E108091D1079091D2070E945E1082E065
:1038A0000E9424168091CF079091D0070E94A71004
:1038B00090CF81E00E9426188FE890E00E940E18B9
:1038C00082E061E00E945F188CE990E00E940E188F
:1038D00081E30E94181788EE93E00E94F81079CFD8
:1038E000CF92DF92EF92FF920F931F93EE2411E09D
:1038F000FF24F39401E0CC24CA949DE4D92E809156
:10390000CD079091CE0760E070E042E350E020E008
:103910000E94310A813009F006C180915C0288352D
:1039200009F08AC0EE2021F5D0925C0281E00E946D
:10393000261884EA90E00E940E1882E061E00E945E
:103940005F188AEB90E00E940E1883E061E00E940D
:103950005F188EEC90E00E940E1884E061E00E94F7
:103960005F188AED90E00E940E18EE24E39464C084
:1039700081E0E81609F060C0D0925C020E9426182F
:1039800084EE90E00E940E1882E061E00E945F18D1
:103990008AEF90E00E940E1883E061E00E945F18B9
:1039A0008EE091E00E940E1884E061E00E945F18B2
:1039B0008AED90E00E940E1881E068E00E945F1896
:1039C000002319F489E191E002C08DE191E00E94A9
:1039D0000E1881E061E10E945F18FF2019F489E16F
:1039E00091E002C08DE191E00E940E1882E068E053
:1039F0000E945F186091CC0770E080E090E00E9428
:103A00002F1782E060E10E945F186091CB0770E0A1
:103A100080E090E00E942F1783E068E00E945F182A
:103A2000112329F481E291E00E940E1805C08BE277
:103A300091E00E940E1810E0809159028F3F09F426
:103A400067C082E068E00E945F186091CC0770E078
:103A500080E090E00E942F1784E391E00E940E180E
:103A600080915902853340F4833378F5813341F0F6
:103A7000823309F04BC016C0853309F047C035C00A
:103A800081E068E00E945F18002331F489E191E051
:103A90000E940E1801E03AC08DE191E00E940E18DC
:103AA00000E034C081E062E10E945F18FF2039F439
:103AB00089E191E00E940E18FF24F39427C08DE164
:103AC00091E00E940E18FF2421C082E060E10E9474
:103AD0005F186091CB0770E080E090E00E942F17A4
:103AE00084E391E00E940E1811C083E068E00E9418
:103AF0005F18112331F481E291E00E940E1811E069
:103B000005C08BE291E00E940E1810E0C0925902AD
:103B10008091CD079091CE0760E070E040E050E0EA
:103B200020E00E94B70B84E690E00E94F810E7CEF8
:103B30001F931FEF8091CD079091CE0760E070E05A
:103B400042E350E020E00E94310A813009F04EC08B
:103B500088E592E00E942F19809158028F3FD9F199
:103B6000809359028433E1F0853338F4823371F065
:103B7000833380F4813369F507C08633E9F08633F7
:103B8000B8F0873331F51CC081E001C080E00E94AD
:103B9000F9151FC08091CB078032D8F48F5F05C024
:103BA0008091CB078131A8F081508093CB0711C061
:103BB00081E00E94311B0DC082E00E94731A09C08F
:103BC00082E00E94F9158091CF079091D0070E9462
:103BD0005E10109358028091CD079091CE0760E05F
:103BE00070E040E050E020E00E94B70B8AE090E0F7
:103BF0000E94F8109FCFAF92BF92CF92DF92EF92C8
:103C0000FF920F930E948F1B0E94BA180E94F8190E
:103C10000E947E1689E18093CB078BEC97E06CECD9
:103C200077E00E94C01B0E94D91B81EE9BE160E0FF
:103C300070E044E650E020E030E003E0AFECEA2E34
:103C4000A7E0FA2ECC24DD24AA24BB240E94E11193
:103C500088E99DE160E070E04CE251E020E030E076
:103C600002E0F3EDEF2EF7E0FF2E0E94E11180E776
:103C70009CE160E070E04CE251E020E030E001E0E7
:103C8000E1EDEE2EE7E0FE2E0E94E11181E060E022
:103C90000E94AA0C9093CE078093CD07009739F02D
:103CA00060E070E040E050E020E00E94B70B0E942E
:103CB0000B13FFCF629FD001739FF001829FE00D35
:103CC000F11D649FE00DF11D929FF00D839FF00D9B
:103CD000749FF00D659FF00D9927729FB00DE11D47
:103CE000F91F639FB00DE11DF91FBD01CF01112424
:103CF0000895A1E21A2EAA1BBB1BFD010DC0AA1F2D
:103D0000BB1FEE1FFF1FA217B307E407F50720F044
:103D1000A21BB30BE40BF50B661F771F881F991FBF
:103D20001A9469F760957095809590959B01AC0108
:103D3000BD01CF01089597FB092E05260ED057FD32
:103D400004D0D7DF0AD0001C38F450954095309548
:103D500021953F4F4F4F5F4F0895F6F7909580950F
:103D6000709561957F4F8F4F9F4F08952F923F928F
:103D70004F925F926F927F928F929F92AF92BF927B
:103D8000CF92DF92EF92FF920F931F93CF93DF9327
:103D9000CDB7DEB7CA1BDB0B0FB6F894DEBF0FBE84
:103DA000CDBF09942A88398848885F846E847D84D1
:103DB0008C849B84AA84B984C884DF80EE80FD80D3
:103DC0000C811B81AA81B981CE0FD11D0FB6F89449
:103DD000DEBF0FBECDBFED010895FB01DC0102C0C7
:103DE00001900D9241505040D8F70895DC0101C078
:103DF0006D9341505040E0F70895FB01DC014150C4
:103E0000504048F001900D920020C9F701C01D926A
:0C3E100041505040E0F70895F894FFCFB7
:103E1C0049444C4500456E7465722050617373774C
:103E2C006F72640053797374656D204C6F67696EA3
:103E3C00002020202057656C636F6D6520210020C9
:103E4C002020202057726F6E672021005472696108
:103E5C006C202000446F6F72203D204F46467C57EB
:103E6C00696E44203D204F46460054656D70203DE0
:103E7C00204F46467C4143203D204F46460043613F
:103E8C006C6C203D204E6F6E650053797374656DBC
:103E9C00204F6E00446F6F72203D202020207C57F5
:103EAC00696E44203D202020200054656D70203D1B
:103EBC00202020207C4143203D20202020004361F5
:103ECC006C6C203D20202020004F4646004F4E2099
:103EDC00004E6F6E652020202020005365637572A4
:103EEC006974790020430031323334000000000043
:103EFC000000000000010202030303030404040495
:103F0C000404040405050505050505050505050559
:103F1C000505050506060606060606060606060639
:103F2C000606060606060606060606060606060625
:103F3C000606060607070707070707070707070709
:103F4C0007070707070707070707070707070707F5
:103F5C0007070707070707070707070707070707E5
:103F6C0007070707070707070707070707070707D5
:103F7C0007070707080808080808080808080808B9
:103F8C0008080808080808080808080808080808A5
:103F9C000808080808080808080808080808080895
:103FAC000808080808080808080808080808080885
:103FBC000808080808080808080808080808080875
:103FCC000808080808080808080808080808080865
:103FDC000808080808080808080808080808080855
:103FEC000808080808080808080808080808080845
:103FFC0008080808FFFF0302020207030347020335
:10400C000302020002015002FFFF37015837383912
:0E401C002F343536783132332D43303D2B00B2
:00000001FF
